{
  "_format": "hh-sol-artifact-1",
  "contractName": "FacetB",
  "sourceName": "src/Condition/facets/FacetB.sol",
  "abi": [
    {
      "inputs": [
        {
          "internalType": "address",
          "name": "_to",
          "type": "address"
        },
        {
          "internalType": "uint256",
          "name": "amount",
          "type": "uint256"
        },
        {
          "internalType": "bytes",
          "name": "data",
          "type": "bytes"
        }
      ],
      "name": "runCondition",
      "outputs": [
        {
          "internalType": "bool",
          "name": "",
          "type": "bool"
        }
      ],
      "stateMutability": "view",
      "type": "function"
    },
    {
      "inputs": [
        {
          "internalType": "address",
          "name": "_eas",
          "type": "address"
        }
      ],
      "name": "setEasAddress",
      "outputs": [],
      "stateMutability": "nonpayable",
      "type": "function"
    }
  ],
  "bytecode": "0x608060405234801561001057600080fd5b50610a38806100206000396000f3fe608060405234801561001057600080fd5b50600436106100365760003560e01c806342495c141461003b5780635d3511e81461006b575b600080fd5b610055600480360381019061005091906105ce565b610087565b6040516100629190610658565b60405180910390f35b61008560048036038101906100809190610673565b6101eb565b005b6000808280602001905181019061009e91906106d6565b9050733c44cdddb6a900fa2b585dd299e03d12fa4293bc73ffffffffffffffffffffffffffffffffffffffff168573ffffffffffffffffffffffffffffffffffffffff16146100ec57600080fd5b60648411156100fa57600080fd5b7390f79bf6eb2c4f870365e785982e1f101e93b90673ffffffffffffffffffffffffffffffffffffffff1661012e826101f8565b60e0015173ffffffffffffffffffffffffffffffffffffffff161461015257600080fd5b8473ffffffffffffffffffffffffffffffffffffffff16610172826101f8565b60c0015173ffffffffffffffffffffffffffffffffffffffff161461019657600080fd5b6000806101a2836101f8565b61012001518060200190518101906101ba9190610744565b9150915060468210156101cc57600080fd5b60011515811515146101dd57600080fd5b600193505050509392505050565b6101f4816102b1565b5050565b610200610338565b61020861030b565b60000160009054906101000a900473ffffffffffffffffffffffffffffffffffffffff1673ffffffffffffffffffffffffffffffffffffffff1663a3112a64836040518263ffffffff1660e01b81526004016102649190610793565b600060405180830381865afa158015610281573d6000803e3d6000fd5b505050506040513d6000823e3d601f19601f820116820180604052508101906102aa91906109b9565b9050919050565b6000806102bc61030b565b9050828160000160006101000a81548173ffffffffffffffffffffffffffffffffffffffff021916908373ffffffffffffffffffffffffffffffffffffffff1602179055506001915050919050565b6000807fe44eeea10212143c08bebf6fb34e8dff5aafd6c4c0e960dd563c72a7ae8d907190508091505090565b6040518061014001604052806000801916815260200160008019168152602001600067ffffffffffffffff168152602001600067ffffffffffffffff168152602001600067ffffffffffffffff16815260200160008019168152602001600073ffffffffffffffffffffffffffffffffffffffff168152602001600073ffffffffffffffffffffffffffffffffffffffff168152602001600015158152602001606081525090565b6000604051905090565b600080fd5b600080fd5b600073ffffffffffffffffffffffffffffffffffffffff82169050919050565b600061041f826103f4565b9050919050565b61042f81610414565b811461043a57600080fd5b50565b60008135905061044c81610426565b92915050565b6000819050919050565b61046581610452565b811461047057600080fd5b50565b6000813590506104828161045c565b92915050565b600080fd5b600080fd5b6000601f19601f8301169050919050565b7f4e487b7100000000000000000000000000000000000000000000000000000000600052604160045260246000fd5b6104db82610492565b810181811067ffffffffffffffff821117156104fa576104f96104a3565b5b80604052505050565b600061050d6103e0565b905061051982826104d2565b919050565b600067ffffffffffffffff821115610539576105386104a3565b5b61054282610492565b9050602081019050919050565b82818337600083830152505050565b600061057161056c8461051e565b610503565b90508281526020810184848401111561058d5761058c61048d565b5b61059884828561054f565b509392505050565b600082601f8301126105b5576105b4610488565b5b81356105c584826020860161055e565b91505092915050565b6000806000606084860312156105e7576105e66103ea565b5b60006105f58682870161043d565b935050602061060686828701610473565b925050604084013567ffffffffffffffff811115610627576106266103ef565b5b610633868287016105a0565b9150509250925092565b60008115159050919050565b6106528161063d565b82525050565b600060208201905061066d6000830184610649565b92915050565b600060208284031215610689576106886103ea565b5b60006106978482850161043d565b91505092915050565b6000819050919050565b6106b3816106a0565b81146106be57600080fd5b50565b6000815190506106d0816106aa565b92915050565b6000602082840312156106ec576106eb6103ea565b5b60006106fa848285016106c1565b91505092915050565b6000815190506107128161045c565b92915050565b6107218161063d565b811461072c57600080fd5b50565b60008151905061073e81610718565b92915050565b6000806040838503121561075b5761075a6103ea565b5b600061076985828601610703565b925050602061077a8582860161072f565b9150509250929050565b61078d816106a0565b82525050565b60006020820190506107a86000830184610784565b92915050565b600080fd5b600080fd5b600067ffffffffffffffff82169050919050565b6107d5816107b8565b81146107e057600080fd5b50565b6000815190506107f2816107cc565b92915050565b60008151905061080781610426565b92915050565b60005b8381101561082b578082015181840152602081019050610810565b60008484015250505050565b600061084a6108458461051e565b610503565b9050828152602081018484840111156108665761086561048d565b5b61087184828561080d565b509392505050565b600082601f83011261088e5761088d610488565b5b815161089e848260208601610837565b91505092915050565b600061014082840312156108be576108bd6107ae565b5b6108c9610140610503565b905060006108d9848285016106c1565b60008301525060206108ed848285016106c1565b6020830152506040610901848285016107e3565b6040830152506060610915848285016107e3565b6060830152506080610929848285016107e3565b60808301525060a061093d848285016106c1565b60a08301525060c0610951848285016107f8565b60c08301525060e0610965848285016107f8565b60e08301525061010061097a8482850161072f565b6101008301525061012082015167ffffffffffffffff8111156109a05761099f6107b3565b5b6109ac84828501610879565b6101208301525092915050565b6000602082840312156109cf576109ce6103ea565b5b600082015167ffffffffffffffff8111156109ed576109ec6103ef565b5b6109f9848285016108a7565b9150509291505056fea2646970667358221220b5416aeaf1d10a0e0c679bb0dc9fbfa2d53b02a4a263aafd84d127a477f7c42564736f6c63430008140033",
  "linkReferences": {},
  "deployedLinkReferences": {}
}