{
  "_format": "hh-sol-artifact-1",
  "contractName": "PurposeWrapper",
  "sourceName": "src/PurposeWrapper.sol",
  "abi": [
    {
      "inputs": [
        {
          "internalType": "contract IERC20",
          "name": "underlyingToken",
          "type": "address"
        },
        {
          "internalType": "string",
          "name": "Name",
          "type": "string"
        },
        {
          "internalType": "string",
          "name": "Symbol",
          "type": "string"
        }
      ],
      "stateMutability": "nonpayable",
      "type": "constructor"
    },
    {
      "inputs": [
        {
          "internalType": "address",
          "name": "target",
          "type": "address"
        }
      ],
      "name": "AddressEmptyCode",
      "type": "error"
    },
    {
      "inputs": [
        {
          "internalType": "address",
          "name": "account",
          "type": "address"
        }
      ],
      "name": "AddressInsufficientBalance",
      "type": "error"
    },
    {
      "inputs": [
        {
          "internalType": "address",
          "name": "spender",
          "type": "address"
        },
        {
          "internalType": "uint256",
          "name": "allowance",
          "type": "uint256"
        },
        {
          "internalType": "uint256",
          "name": "needed",
          "type": "uint256"
        }
      ],
      "name": "ERC20InsufficientAllowance",
      "type": "error"
    },
    {
      "inputs": [
        {
          "internalType": "address",
          "name": "sender",
          "type": "address"
        },
        {
          "internalType": "uint256",
          "name": "balance",
          "type": "uint256"
        },
        {
          "internalType": "uint256",
          "name": "needed",
          "type": "uint256"
        }
      ],
      "name": "ERC20InsufficientBalance",
      "type": "error"
    },
    {
      "inputs": [
        {
          "internalType": "address",
          "name": "approver",
          "type": "address"
        }
      ],
      "name": "ERC20InvalidApprover",
      "type": "error"
    },
    {
      "inputs": [
        {
          "internalType": "address",
          "name": "receiver",
          "type": "address"
        }
      ],
      "name": "ERC20InvalidReceiver",
      "type": "error"
    },
    {
      "inputs": [
        {
          "internalType": "address",
          "name": "sender",
          "type": "address"
        }
      ],
      "name": "ERC20InvalidSender",
      "type": "error"
    },
    {
      "inputs": [
        {
          "internalType": "address",
          "name": "spender",
          "type": "address"
        }
      ],
      "name": "ERC20InvalidSpender",
      "type": "error"
    },
    {
      "inputs": [
        {
          "internalType": "address",
          "name": "token",
          "type": "address"
        }
      ],
      "name": "ERC20InvalidUnderlying",
      "type": "error"
    },
    {
      "inputs": [],
      "name": "FailedInnerCall",
      "type": "error"
    },
    {
      "inputs": [
        {
          "internalType": "address",
          "name": "token",
          "type": "address"
        }
      ],
      "name": "SafeERC20FailedOperation",
      "type": "error"
    },
    {
      "anonymous": false,
      "inputs": [
        {
          "indexed": true,
          "internalType": "address",
          "name": "owner",
          "type": "address"
        },
        {
          "indexed": true,
          "internalType": "address",
          "name": "spender",
          "type": "address"
        },
        {
          "indexed": false,
          "internalType": "uint256",
          "name": "value",
          "type": "uint256"
        }
      ],
      "name": "Approval",
      "type": "event"
    },
    {
      "anonymous": false,
      "inputs": [
        {
          "indexed": true,
          "internalType": "address",
          "name": "from",
          "type": "address"
        },
        {
          "indexed": true,
          "internalType": "address",
          "name": "to",
          "type": "address"
        },
        {
          "indexed": false,
          "internalType": "uint256",
          "name": "value",
          "type": "uint256"
        }
      ],
      "name": "Transfer",
      "type": "event"
    },
    {
      "inputs": [],
      "name": "_underlying",
      "outputs": [
        {
          "internalType": "contract IERC20",
          "name": "",
          "type": "address"
        }
      ],
      "stateMutability": "view",
      "type": "function"
    },
    {
      "inputs": [
        {
          "internalType": "address",
          "name": "owner",
          "type": "address"
        },
        {
          "internalType": "address",
          "name": "spender",
          "type": "address"
        }
      ],
      "name": "allowance",
      "outputs": [
        {
          "internalType": "uint256",
          "name": "",
          "type": "uint256"
        }
      ],
      "stateMutability": "view",
      "type": "function"
    },
    {
      "inputs": [
        {
          "internalType": "address",
          "name": "spender",
          "type": "address"
        },
        {
          "internalType": "uint256",
          "name": "value",
          "type": "uint256"
        }
      ],
      "name": "approve",
      "outputs": [
        {
          "internalType": "bool",
          "name": "",
          "type": "bool"
        }
      ],
      "stateMutability": "nonpayable",
      "type": "function"
    },
    {
      "inputs": [
        {
          "internalType": "address",
          "name": "account",
          "type": "address"
        }
      ],
      "name": "balanceOf",
      "outputs": [
        {
          "internalType": "uint256",
          "name": "",
          "type": "uint256"
        }
      ],
      "stateMutability": "view",
      "type": "function"
    },
    {
      "inputs": [],
      "name": "decimals",
      "outputs": [
        {
          "internalType": "uint8",
          "name": "",
          "type": "uint8"
        }
      ],
      "stateMutability": "view",
      "type": "function"
    },
    {
      "inputs": [
        {
          "internalType": "address",
          "name": "account",
          "type": "address"
        },
        {
          "internalType": "uint256",
          "name": "value",
          "type": "uint256"
        },
        {
          "internalType": "address",
          "name": "condition_contract",
          "type": "address"
        }
      ],
      "name": "depositFor",
      "outputs": [
        {
          "internalType": "bool",
          "name": "",
          "type": "bool"
        }
      ],
      "stateMutability": "nonpayable",
      "type": "function"
    },
    {
      "inputs": [],
      "name": "name",
      "outputs": [
        {
          "internalType": "string",
          "name": "",
          "type": "string"
        }
      ],
      "stateMutability": "view",
      "type": "function"
    },
    {
      "inputs": [],
      "name": "symbol",
      "outputs": [
        {
          "internalType": "string",
          "name": "",
          "type": "string"
        }
      ],
      "stateMutability": "view",
      "type": "function"
    },
    {
      "inputs": [],
      "name": "totalSupply",
      "outputs": [
        {
          "internalType": "uint256",
          "name": "",
          "type": "uint256"
        }
      ],
      "stateMutability": "view",
      "type": "function"
    },
    {
      "inputs": [
        {
          "internalType": "address",
          "name": "to",
          "type": "address"
        },
        {
          "internalType": "uint256",
          "name": "value",
          "type": "uint256"
        },
        {
          "internalType": "uint256",
          "name": "condition_id",
          "type": "uint256"
        }
      ],
      "name": "transfer",
      "outputs": [
        {
          "internalType": "bool",
          "name": "",
          "type": "bool"
        }
      ],
      "stateMutability": "nonpayable",
      "type": "function"
    },
    {
      "inputs": [
        {
          "internalType": "address",
          "name": "from",
          "type": "address"
        },
        {
          "internalType": "address",
          "name": "to",
          "type": "address"
        },
        {
          "internalType": "uint256",
          "name": "value",
          "type": "uint256"
        },
        {
          "internalType": "uint256",
          "name": "condition_id",
          "type": "uint256"
        }
      ],
      "name": "transferFrom",
      "outputs": [
        {
          "internalType": "bool",
          "name": "",
          "type": "bool"
        }
      ],
      "stateMutability": "nonpayable",
      "type": "function"
    },
    {
      "inputs": [],
      "name": "underlying",
      "outputs": [
        {
          "internalType": "contract IERC20",
          "name": "",
          "type": "address"
        }
      ],
      "stateMutability": "view",
      "type": "function"
    },
    {
      "inputs": [
        {
          "internalType": "address",
          "name": "",
          "type": "address"
        },
        {
          "internalType": "uint256",
          "name": "",
          "type": "uint256"
        }
      ],
      "name": "user_to_conditions",
      "outputs": [
        {
          "internalType": "uint256",
          "name": "id",
          "type": "uint256"
        },
        {
          "internalType": "uint256",
          "name": "amount",
          "type": "uint256"
        },
        {
          "internalType": "address",
          "name": "condition_contract",
          "type": "address"
        }
      ],
      "stateMutability": "view",
      "type": "function"
    },
    {
      "inputs": [
        {
          "internalType": "address",
          "name": "account",
          "type": "address"
        },
        {
          "internalType": "uint256",
          "name": "value",
          "type": "uint256"
        },
        {
          "internalType": "uint256",
          "name": "condition_id",
          "type": "uint256"
        },
        {
          "internalType": "bytes",
          "name": "data",
          "type": "bytes"
        }
      ],
      "name": "withdrawTo",
      "outputs": [
        {
          "internalType": "bool",
          "name": "",
          "type": "bool"
        }
      ],
      "stateMutability": "nonpayable",
      "type": "function"
    }
  ],
  "bytecode": "0x60a06040523480156200001157600080fd5b506040516200291d3803806200291d833981810160405281019062000037919062000317565b3073ffffffffffffffffffffffffffffffffffffffff168373ffffffffffffffffffffffffffffffffffffffff1603620000aa57306040517f438d6fe3000000000000000000000000000000000000000000000000000000008152600401620000a19190620003c2565b60405180910390fd5b8273ffffffffffffffffffffffffffffffffffffffff1660808173ffffffffffffffffffffffffffffffffffffffff16815250508160049081620000ef91906200062a565b5080600590816200010191906200062a565b5050505062000711565b6000604051905090565b600080fd5b600080fd5b600073ffffffffffffffffffffffffffffffffffffffff82169050919050565b60006200014c826200011f565b9050919050565b600062000160826200013f565b9050919050565b620001728162000153565b81146200017e57600080fd5b50565b600081519050620001928162000167565b92915050565b600080fd5b600080fd5b6000601f19601f8301169050919050565b7f4e487b7100000000000000000000000000000000000000000000000000000000600052604160045260246000fd5b620001ed82620001a2565b810181811067ffffffffffffffff821117156200020f576200020e620001b3565b5b80604052505050565b6000620002246200010b565b9050620002328282620001e2565b919050565b600067ffffffffffffffff821115620002555762000254620001b3565b5b6200026082620001a2565b9050602081019050919050565b60005b838110156200028d57808201518184015260208101905062000270565b60008484015250505050565b6000620002b0620002aa8462000237565b62000218565b905082815260208101848484011115620002cf57620002ce6200019d565b5b620002dc8482856200026d565b509392505050565b600082601f830112620002fc57620002fb62000198565b5b81516200030e84826020860162000299565b91505092915050565b60008060006060848603121562000333576200033262000115565b5b6000620003438682870162000181565b935050602084015167ffffffffffffffff8111156200036757620003666200011a565b5b6200037586828701620002e4565b925050604084015167ffffffffffffffff8111156200039957620003986200011a565b5b620003a786828701620002e4565b9150509250925092565b620003bc816200013f565b82525050565b6000602082019050620003d96000830184620003b1565b92915050565b600081519050919050565b7f4e487b7100000000000000000000000000000000000000000000000000000000600052602260045260246000fd5b600060028204905060018216806200043257607f821691505b602082108103620004485762000447620003ea565b5b50919050565b60008190508160005260206000209050919050565b60006020601f8301049050919050565b600082821b905092915050565b600060088302620004b27fffffffffffffffffffffffffffffffffffffffffffffffffffffffffffffffff8262000473565b620004be868362000473565b95508019841693508086168417925050509392505050565b6000819050919050565b6000819050919050565b60006200050b62000505620004ff84620004d6565b620004e0565b620004d6565b9050919050565b6000819050919050565b6200052783620004ea565b6200053f620005368262000512565b84845462000480565b825550505050565b600090565b6200055662000547565b620005638184846200051c565b505050565b5b818110156200058b576200057f6000826200054c565b60018101905062000569565b5050565b601f821115620005da57620005a4816200044e565b620005af8462000463565b81016020851015620005bf578190505b620005d7620005ce8562000463565b83018262000568565b50505b505050565b600082821c905092915050565b6000620005ff60001984600802620005df565b1980831691505092915050565b60006200061a8383620005ec565b9150826002028217905092915050565b6200063582620003df565b67ffffffffffffffff811115620006515762000650620001b3565b5b6200065d825462000419565b6200066a8282856200058f565b600060209050601f831160018114620006a257600084156200068d578287015190505b6200069985826200060c565b86555062000709565b601f198416620006b2866200044e565b60005b82811015620006dc57848901518255600182019150602085019450602081019050620006b5565b86831015620006fc5784890151620006f8601f891682620005ec565b8355505b6001600288020188555050505b505050505050565b6080516121db62000742600039600081816106f50152818161079c0152818161089d01526109bc01526121db6000f3fe608060405234801561001057600080fd5b50600436106100ea5760003560e01c80636f307dc31161008c5780639e573665116100665780639e57366514610277578063c8820f6c14610295578063dd62ed3e146102c5578063fe99049a146102f5576100ea565b80636f307dc31461020b57806370a082311461022957806395d89b4114610259576100ea565b806318160ddd116100c857806318160ddd1461016d5780632cd119b81461018b5780632e51d6c3146101bb578063313ce567146101ed576100ea565b806306fdde03146100ef578063095bcdb61461010d578063095ea7b31461013d575b600080fd5b6100f7610325565b604051610104919061183f565b60405180910390f35b61012760048036038101906101229190611909565b6103b7565b6040516101349190611977565b60405180910390f35b61015760048036038101906101529190611992565b6103dc565b6040516101649190611977565b60405180910390f35b6101756103ff565b60405161018291906119e1565b60405180910390f35b6101a560048036038101906101a09190611b31565b610409565b6040516101b29190611977565b60405180910390f35b6101d560048036038101906101d09190611992565b610728565b6040516101e493929190611bc3565b60405180910390f35b6101f561078f565b6040516102029190611c16565b60405180910390f35b610213610798565b6040516102209190611c90565b60405180910390f35b610243600480360381019061023e9190611cab565b6107c0565b60405161025091906119e1565b60405180910390f35b610261610809565b60405161026e919061183f565b60405180910390f35b61027f61089b565b60405161028c9190611c90565b60405180910390f35b6102af60048036038101906102aa9190611cd8565b6108bf565b6040516102bc9190611977565b60405180910390f35b6102df60048036038101906102da9190611d2b565b6109f9565b6040516102ec91906119e1565b60405180910390f35b61030f600480360381019061030a9190611d6b565b610a80565b60405161031c9190611977565b60405180910390f35b60606004805461033490611e01565b80601f016020809104026020016040519081016040528092919081815260200182805461036090611e01565b80156103ad5780601f10610382576101008083540402835291602001916103ad565b820191906000526020600020905b81548152906001019060200180831161039057829003601f168201915b5050505050905090565b6000806103c2610ab1565b90506103d081868686610ab9565b60019150509392505050565b6000806103e7610ab1565b90506103f4818585610d20565b600191505092915050565b6000600354905090565b60003073ffffffffffffffffffffffffffffffffffffffff168573ffffffffffffffffffffffffffffffffffffffff160361047b57846040517fec442f050000000000000000000000000000000000000000000000000000000081526004016104729190611e32565b60405180910390fd5b6000803373ffffffffffffffffffffffffffffffffffffffff1673ffffffffffffffffffffffffffffffffffffffff16815260200190815260200160002083815481106104cb576104ca611e4d565b5b90600052602060002090600302016001015484111561051f576040517f08c379a000000000000000000000000000000000000000000000000000000000815260040161051690611ec8565b60405180910390fd5b836000803373ffffffffffffffffffffffffffffffffffffffff1673ffffffffffffffffffffffffffffffffffffffff16815260200190815260200160002084815481106105705761056f611e4d565b5b906000526020600020906003020160010160008282546105909190611f17565b9250508190555060008060003373ffffffffffffffffffffffffffffffffffffffff1673ffffffffffffffffffffffffffffffffffffffff16815260200190815260200160002084815481106105e9576105e8611e4d565b5b906000526020600020906003020160020160009054906101000a900473ffffffffffffffffffffffffffffffffffffffff169050600115158173ffffffffffffffffffffffffffffffffffffffff1663b0c45ec5856040518263ffffffff1660e01b815260040161065a9190611fa0565b6020604051808303816000875af1158015610679573d6000803e3d6000fd5b505050506040513d601f19601f8201168201806040525081019061069d9190611fee565b1515146106df576040517f08c379a00000000000000000000000000000000000000000000000000000000081526004016106d690612067565b60405180910390fd5b6106f06106ea610ab1565b86610d32565b61071b7f00000000000000000000000000000000000000000000000000000000000000008787610db4565b6001915050949350505050565b6000602052816000526040600020818154811061074457600080fd5b9060005260206000209060030201600091509150508060000154908060010154908060020160009054906101000a900473ffffffffffffffffffffffffffffffffffffffff16905083565b60006012905090565b60007f0000000000000000000000000000000000000000000000000000000000000000905090565b6000600160008373ffffffffffffffffffffffffffffffffffffffff1673ffffffffffffffffffffffffffffffffffffffff168152602001908152602001600020549050919050565b60606005805461081890611e01565b80601f016020809104026020016040519081016040528092919081815260200182805461084490611e01565b80156108915780601f1061086657610100808354040283529160200191610891565b820191906000526020600020905b81548152906001019060200180831161087457829003601f168201915b5050505050905090565b7f000000000000000000000000000000000000000000000000000000000000000081565b6000806108ca610ab1565b90506108d7858585610e33565b3073ffffffffffffffffffffffffffffffffffffffff168173ffffffffffffffffffffffffffffffffffffffff160361094757306040517f96c6fd1e00000000000000000000000000000000000000000000000000000000815260040161093e9190611e32565b60405180910390fd5b3073ffffffffffffffffffffffffffffffffffffffff168573ffffffffffffffffffffffffffffffffffffffff16036109b757846040517fec442f050000000000000000000000000000000000000000000000000000000081526004016109ae9190611e32565b60405180910390fd5b6109e37f0000000000000000000000000000000000000000000000000000000000000000823087610f93565b6109ed8585611015565b60019150509392505050565b6000600260008473ffffffffffffffffffffffffffffffffffffffff1673ffffffffffffffffffffffffffffffffffffffff16815260200190815260200160002060008373ffffffffffffffffffffffffffffffffffffffff1673ffffffffffffffffffffffffffffffffffffffff16815260200190815260200160002054905092915050565b600080610a8b610ab1565b9050610a98868286611097565b610aa486868686610ab9565b6001915050949350505050565b600033905090565b600073ffffffffffffffffffffffffffffffffffffffff168473ffffffffffffffffffffffffffffffffffffffff1603610b2b5760006040517f96c6fd1e000000000000000000000000000000000000000000000000000000008152600401610b229190611e32565b60405180910390fd5b600073ffffffffffffffffffffffffffffffffffffffff168373ffffffffffffffffffffffffffffffffffffffff1603610b9d5760006040517fec442f05000000000000000000000000000000000000000000000000000000008152600401610b949190611e32565b60405180910390fd5b6000808573ffffffffffffffffffffffffffffffffffffffff1673ffffffffffffffffffffffffffffffffffffffff1681526020019081526020016000208181548110610bed57610bec611e4d565b5b906000526020600020906003020160010154821115610c0b57600080fd5b816000808673ffffffffffffffffffffffffffffffffffffffff1673ffffffffffffffffffffffffffffffffffffffff1681526020019081526020016000208281548110610c5c57610c5b611e4d565b5b90600052602060002090600302016001016000828254610c7c9190611f17565b92505081905550610d0f83836000808873ffffffffffffffffffffffffffffffffffffffff1673ffffffffffffffffffffffffffffffffffffffff1681526020019081526020016000208481548110610cd857610cd7611e4d565b5b906000526020600020906003020160020160009054906101000a900473ffffffffffffffffffffffffffffffffffffffff16610e33565b610d1a84848461112b565b50505050565b610d2d8383836001611353565b505050565b600073ffffffffffffffffffffffffffffffffffffffff168273ffffffffffffffffffffffffffffffffffffffff1603610da45760006040517f96c6fd1e000000000000000000000000000000000000000000000000000000008152600401610d9b9190611e32565b60405180910390fd5b610db08260008361112b565b5050565b610e2e838473ffffffffffffffffffffffffffffffffffffffff1663a9059cbb8585604051602401610de7929190612087565b604051602081830303815290604052915060e01b6020820180517bffffffffffffffffffffffffffffffffffffffffffffffffffffffff838183161783525050505061152a565b505050565b610e3b611778565b6000808573ffffffffffffffffffffffffffffffffffffffff1673ffffffffffffffffffffffffffffffffffffffff168152602001908152602001600020805490508160000181815250508281602001818152505081816040019073ffffffffffffffffffffffffffffffffffffffff16908173ffffffffffffffffffffffffffffffffffffffff16815250506000808573ffffffffffffffffffffffffffffffffffffffff1673ffffffffffffffffffffffffffffffffffffffff168152602001908152602001600020819080600181540180825580915050600190039060005260206000209060030201600090919091909150600082015181600001556020820151816001015560408201518160020160006101000a81548173ffffffffffffffffffffffffffffffffffffffff021916908373ffffffffffffffffffffffffffffffffffffffff160217905550505050505050565b61100f848573ffffffffffffffffffffffffffffffffffffffff166323b872dd868686604051602401610fc8939291906120b0565b604051602081830303815290604052915060e01b6020820180517bffffffffffffffffffffffffffffffffffffffffffffffffffffffff838183161783525050505061152a565b50505050565b600073ffffffffffffffffffffffffffffffffffffffff168273ffffffffffffffffffffffffffffffffffffffff16036110875760006040517fec442f0500000000000000000000000000000000000000000000000000000000815260040161107e9190611e32565b60405180910390fd5b6110936000838361112b565b5050565b60006110a384846109f9565b90507fffffffffffffffffffffffffffffffffffffffffffffffffffffffffffffffff81146111255781811015611115578281836040517ffb8f41b200000000000000000000000000000000000000000000000000000000815260040161110c939291906120e7565b60405180910390fd5b61112484848484036000611353565b5b50505050565b600073ffffffffffffffffffffffffffffffffffffffff168373ffffffffffffffffffffffffffffffffffffffff160361117d578060036000828254611171919061211e565b92505081905550611252565b6000600160008573ffffffffffffffffffffffffffffffffffffffff1673ffffffffffffffffffffffffffffffffffffffff1681526020019081526020016000205490508181101561120a578381836040517fe450d38c000000000000000000000000000000000000000000000000000000008152600401611201939291906120e7565b60405180910390fd5b818103600160008673ffffffffffffffffffffffffffffffffffffffff1673ffffffffffffffffffffffffffffffffffffffff16815260200190815260200160002081905550505b600073ffffffffffffffffffffffffffffffffffffffff168273ffffffffffffffffffffffffffffffffffffffff160361129b57806003600082825403925050819055506112e9565b80600160008473ffffffffffffffffffffffffffffffffffffffff1673ffffffffffffffffffffffffffffffffffffffff168152602001908152602001600020600082825401925050819055505b8173ffffffffffffffffffffffffffffffffffffffff168373ffffffffffffffffffffffffffffffffffffffff167fddf252ad1be2c89b69c2b068fc378daa952ba7f163c4a11628f55a4df523b3ef8360405161134691906119e1565b60405180910390a3505050565b600073ffffffffffffffffffffffffffffffffffffffff168473ffffffffffffffffffffffffffffffffffffffff16036113c55760006040517fe602df050000000000000000000000000000000000000000000000000000000081526004016113bc9190611e32565b60405180910390fd5b600073ffffffffffffffffffffffffffffffffffffffff168373ffffffffffffffffffffffffffffffffffffffff16036114375760006040517f94280d6200000000000000000000000000000000000000000000000000000000815260040161142e9190611e32565b60405180910390fd5b81600260008673ffffffffffffffffffffffffffffffffffffffff1673ffffffffffffffffffffffffffffffffffffffff16815260200190815260200160002060008573ffffffffffffffffffffffffffffffffffffffff1673ffffffffffffffffffffffffffffffffffffffff168152602001908152602001600020819055508015611524578273ffffffffffffffffffffffffffffffffffffffff168473ffffffffffffffffffffffffffffffffffffffff167f8c5be1e5ebec7d5bd14f71427d1e84f3dd0314c0f7b2291e5b200ac8c7c3b9258460405161151b91906119e1565b60405180910390a35b50505050565b6000611555828473ffffffffffffffffffffffffffffffffffffffff166115c190919063ffffffff16565b9050600081511415801561157a5750808060200190518101906115789190611fee565b155b156115bc57826040517f5274afe70000000000000000000000000000000000000000000000000000000081526004016115b39190611e32565b60405180910390fd5b505050565b60606115cf838360006115d7565b905092915050565b60608147101561161e57306040517fcd7860590000000000000000000000000000000000000000000000000000000081526004016116159190611e32565b60405180910390fd5b6000808573ffffffffffffffffffffffffffffffffffffffff168486604051611647919061218e565b60006040518083038185875af1925050503d8060008114611684576040519150601f19603f3d011682016040523d82523d6000602084013e611689565b606091505b50915091506116998683836116a4565b925050509392505050565b6060826116b9576116b482611733565b61172b565b600082511480156116e1575060008473ffffffffffffffffffffffffffffffffffffffff163b145b1561172357836040517f9996b31500000000000000000000000000000000000000000000000000000000815260040161171a9190611e32565b60405180910390fd5b81905061172c565b5b9392505050565b6000815111156117465780518082602001fd5b6040517f1425ea4200000000000000000000000000000000000000000000000000000000815260040160405180910390fd5b60405180606001604052806000815260200160008152602001600073ffffffffffffffffffffffffffffffffffffffff1681525090565b600081519050919050565b600082825260208201905092915050565b60005b838110156117e95780820151818401526020810190506117ce565b60008484015250505050565b6000601f19601f8301169050919050565b6000611811826117af565b61181b81856117ba565b935061182b8185602086016117cb565b611834816117f5565b840191505092915050565b600060208201905081810360008301526118598184611806565b905092915050565b6000604051905090565b600080fd5b600080fd5b600073ffffffffffffffffffffffffffffffffffffffff82169050919050565b60006118a082611875565b9050919050565b6118b081611895565b81146118bb57600080fd5b50565b6000813590506118cd816118a7565b92915050565b6000819050919050565b6118e6816118d3565b81146118f157600080fd5b50565b600081359050611903816118dd565b92915050565b6000806000606084860312156119225761192161186b565b5b6000611930868287016118be565b9350506020611941868287016118f4565b9250506040611952868287016118f4565b9150509250925092565b60008115159050919050565b6119718161195c565b82525050565b600060208201905061198c6000830184611968565b92915050565b600080604083850312156119a9576119a861186b565b5b60006119b7858286016118be565b92505060206119c8858286016118f4565b9150509250929050565b6119db816118d3565b82525050565b60006020820190506119f660008301846119d2565b92915050565b600080fd5b600080fd5b7f4e487b7100000000000000000000000000000000000000000000000000000000600052604160045260246000fd5b611a3e826117f5565b810181811067ffffffffffffffff82111715611a5d57611a5c611a06565b5b80604052505050565b6000611a70611861565b9050611a7c8282611a35565b919050565b600067ffffffffffffffff821115611a9c57611a9b611a06565b5b611aa5826117f5565b9050602081019050919050565b82818337600083830152505050565b6000611ad4611acf84611a81565b611a66565b905082815260208101848484011115611af057611aef611a01565b5b611afb848285611ab2565b509392505050565b600082601f830112611b1857611b176119fc565b5b8135611b28848260208601611ac1565b91505092915050565b60008060008060808587031215611b4b57611b4a61186b565b5b6000611b59878288016118be565b9450506020611b6a878288016118f4565b9350506040611b7b878288016118f4565b925050606085013567ffffffffffffffff811115611b9c57611b9b611870565b5b611ba887828801611b03565b91505092959194509250565b611bbd81611895565b82525050565b6000606082019050611bd860008301866119d2565b611be560208301856119d2565b611bf26040830184611bb4565b949350505050565b600060ff82169050919050565b611c1081611bfa565b82525050565b6000602082019050611c2b6000830184611c07565b92915050565b6000819050919050565b6000611c56611c51611c4c84611875565b611c31565b611875565b9050919050565b6000611c6882611c3b565b9050919050565b6000611c7a82611c5d565b9050919050565b611c8a81611c6f565b82525050565b6000602082019050611ca56000830184611c81565b92915050565b600060208284031215611cc157611cc061186b565b5b6000611ccf848285016118be565b91505092915050565b600080600060608486031215611cf157611cf061186b565b5b6000611cff868287016118be565b9350506020611d10868287016118f4565b9250506040611d21868287016118be565b9150509250925092565b60008060408385031215611d4257611d4161186b565b5b6000611d50858286016118be565b9250506020611d61858286016118be565b9150509250929050565b60008060008060808587031215611d8557611d8461186b565b5b6000611d93878288016118be565b9450506020611da4878288016118be565b9350506040611db5878288016118f4565b9250506060611dc6878288016118f4565b91505092959194509250565b7f4e487b7100000000000000000000000000000000000000000000000000000000600052602260045260246000fd5b60006002820490506001821680611e1957607f821691505b602082108103611e2c57611e2b611dd2565b5b50919050565b6000602082019050611e476000830184611bb4565b92915050565b7f4e487b7100000000000000000000000000000000000000000000000000000000600052603260045260246000fd5b7f56616c75652069732077726f6e67000000000000000000000000000000000000600082015250565b6000611eb2600e836117ba565b9150611ebd82611e7c565b602082019050919050565b60006020820190508181036000830152611ee181611ea5565b9050919050565b7f4e487b7100000000000000000000000000000000000000000000000000000000600052601160045260246000fd5b6000611f22826118d3565b9150611f2d836118d3565b9250828203905081811115611f4557611f44611ee8565b5b92915050565b600081519050919050565b600082825260208201905092915050565b6000611f7282611f4b565b611f7c8185611f56565b9350611f8c8185602086016117cb565b611f95816117f5565b840191505092915050565b60006020820190508181036000830152611fba8184611f67565b905092915050565b611fcb8161195c565b8114611fd657600080fd5b50565b600081519050611fe881611fc2565b92915050565b6000602082840312156120045761200361186b565b5b600061201284828501611fd9565b91505092915050565b7f436f6e646974696f6e20636f6e74726163742072657665727465640000000000600082015250565b6000612051601b836117ba565b915061205c8261201b565b602082019050919050565b6000602082019050818103600083015261208081612044565b9050919050565b600060408201905061209c6000830185611bb4565b6120a960208301846119d2565b9392505050565b60006060820190506120c56000830186611bb4565b6120d26020830185611bb4565b6120df60408301846119d2565b949350505050565b60006060820190506120fc6000830186611bb4565b61210960208301856119d2565b61211660408301846119d2565b949350505050565b6000612129826118d3565b9150612134836118d3565b925082820190508082111561214c5761214b611ee8565b5b92915050565b600081905092915050565b600061216882611f4b565b6121728185612152565b93506121828185602086016117cb565b80840191505092915050565b600061219a828461215d565b91508190509291505056fea2646970667358221220e196c0c60f639c2697dbb8ed5fa2e7b0c8bd7c56cda21902faeae6745616e9c964736f6c63430008140033",
  "linkReferences": {},
  "deployedLinkReferences": {}
}