{
  "_format": "hh-sol-artifact-1",
  "contractName": "PurposeWrapper",
  "sourceName": "src/PurposeWrapper.sol",
  "abi": [
    {
      "inputs": [
        {
          "internalType": "contract IERC20",
          "name": "underlyingToken",
          "type": "address"
        },
        {
          "internalType": "string",
          "name": "Name",
          "type": "string"
        },
        {
          "internalType": "string",
          "name": "Symbol",
          "type": "string"
        }
      ],
      "stateMutability": "nonpayable",
      "type": "constructor"
    },
    {
      "inputs": [
        {
          "internalType": "address",
          "name": "target",
          "type": "address"
        }
      ],
      "name": "AddressEmptyCode",
      "type": "error"
    },
    {
      "inputs": [
        {
          "internalType": "address",
          "name": "account",
          "type": "address"
        }
      ],
      "name": "AddressInsufficientBalance",
      "type": "error"
    },
    {
      "inputs": [
        {
          "internalType": "address",
          "name": "spender",
          "type": "address"
        },
        {
          "internalType": "uint256",
          "name": "allowance",
          "type": "uint256"
        },
        {
          "internalType": "uint256",
          "name": "needed",
          "type": "uint256"
        }
      ],
      "name": "ERC20InsufficientAllowance",
      "type": "error"
    },
    {
      "inputs": [
        {
          "internalType": "address",
          "name": "sender",
          "type": "address"
        },
        {
          "internalType": "uint256",
          "name": "balance",
          "type": "uint256"
        },
        {
          "internalType": "uint256",
          "name": "needed",
          "type": "uint256"
        }
      ],
      "name": "ERC20InsufficientBalance",
      "type": "error"
    },
    {
      "inputs": [
        {
          "internalType": "address",
          "name": "approver",
          "type": "address"
        }
      ],
      "name": "ERC20InvalidApprover",
      "type": "error"
    },
    {
      "inputs": [
        {
          "internalType": "address",
          "name": "receiver",
          "type": "address"
        }
      ],
      "name": "ERC20InvalidReceiver",
      "type": "error"
    },
    {
      "inputs": [
        {
          "internalType": "address",
          "name": "sender",
          "type": "address"
        }
      ],
      "name": "ERC20InvalidSender",
      "type": "error"
    },
    {
      "inputs": [
        {
          "internalType": "address",
          "name": "spender",
          "type": "address"
        }
      ],
      "name": "ERC20InvalidSpender",
      "type": "error"
    },
    {
      "inputs": [
        {
          "internalType": "address",
          "name": "token",
          "type": "address"
        }
      ],
      "name": "ERC20InvalidUnderlying",
      "type": "error"
    },
    {
      "inputs": [],
      "name": "FailedInnerCall",
      "type": "error"
    },
    {
      "inputs": [
        {
          "internalType": "address",
          "name": "token",
          "type": "address"
        }
      ],
      "name": "SafeERC20FailedOperation",
      "type": "error"
    },
    {
      "anonymous": false,
      "inputs": [
        {
          "indexed": true,
          "internalType": "address",
          "name": "owner",
          "type": "address"
        },
        {
          "indexed": true,
          "internalType": "address",
          "name": "spender",
          "type": "address"
        },
        {
          "indexed": false,
          "internalType": "uint256",
          "name": "value",
          "type": "uint256"
        }
      ],
      "name": "Approval",
      "type": "event"
    },
    {
      "anonymous": false,
      "inputs": [
        {
          "indexed": true,
          "internalType": "address",
          "name": "from",
          "type": "address"
        },
        {
          "indexed": true,
          "internalType": "address",
          "name": "to",
          "type": "address"
        },
        {
          "indexed": false,
          "internalType": "uint256",
          "name": "value",
          "type": "uint256"
        }
      ],
      "name": "Transfer",
      "type": "event"
    },
    {
      "inputs": [],
      "name": "_underlying",
      "outputs": [
        {
          "internalType": "contract IERC20",
          "name": "",
          "type": "address"
        }
      ],
      "stateMutability": "view",
      "type": "function"
    },
    {
      "inputs": [
        {
          "internalType": "address",
          "name": "owner",
          "type": "address"
        },
        {
          "internalType": "address",
          "name": "spender",
          "type": "address"
        }
      ],
      "name": "allowance",
      "outputs": [
        {
          "internalType": "uint256",
          "name": "",
          "type": "uint256"
        }
      ],
      "stateMutability": "view",
      "type": "function"
    },
    {
      "inputs": [
        {
          "internalType": "address",
          "name": "spender",
          "type": "address"
        },
        {
          "internalType": "uint256",
          "name": "value",
          "type": "uint256"
        }
      ],
      "name": "approve",
      "outputs": [
        {
          "internalType": "bool",
          "name": "",
          "type": "bool"
        }
      ],
      "stateMutability": "nonpayable",
      "type": "function"
    },
    {
      "inputs": [
        {
          "internalType": "address",
          "name": "account",
          "type": "address"
        }
      ],
      "name": "balanceOf",
      "outputs": [
        {
          "internalType": "uint256",
          "name": "",
          "type": "uint256"
        }
      ],
      "stateMutability": "view",
      "type": "function"
    },
    {
      "inputs": [],
      "name": "decimals",
      "outputs": [
        {
          "internalType": "uint8",
          "name": "",
          "type": "uint8"
        }
      ],
      "stateMutability": "view",
      "type": "function"
    },
    {
      "inputs": [
        {
          "internalType": "address",
          "name": "account",
          "type": "address"
        },
        {
          "internalType": "uint256",
          "name": "value",
          "type": "uint256"
        },
        {
          "internalType": "address",
          "name": "condition_contract",
          "type": "address"
        }
      ],
      "name": "depositFor",
      "outputs": [
        {
          "internalType": "bool",
          "name": "",
          "type": "bool"
        }
      ],
      "stateMutability": "nonpayable",
      "type": "function"
    },
    {
      "inputs": [
        {
          "internalType": "address",
          "name": "user",
          "type": "address"
        }
      ],
      "name": "getCondition",
      "outputs": [
        {
          "components": [
            {
              "internalType": "uint256",
              "name": "id",
              "type": "uint256"
            },
            {
              "internalType": "uint256",
              "name": "amount",
              "type": "uint256"
            },
            {
              "internalType": "address",
              "name": "condition_contract",
              "type": "address"
            }
          ],
          "internalType": "struct PurposeWrapper.Condition[]",
          "name": "",
          "type": "tuple[]"
        }
      ],
      "stateMutability": "view",
      "type": "function"
    },
    {
      "inputs": [],
      "name": "name",
      "outputs": [
        {
          "internalType": "string",
          "name": "",
          "type": "string"
        }
      ],
      "stateMutability": "view",
      "type": "function"
    },
    {
      "inputs": [],
      "name": "symbol",
      "outputs": [
        {
          "internalType": "string",
          "name": "",
          "type": "string"
        }
      ],
      "stateMutability": "view",
      "type": "function"
    },
    {
      "inputs": [],
      "name": "totalSupply",
      "outputs": [
        {
          "internalType": "uint256",
          "name": "",
          "type": "uint256"
        }
      ],
      "stateMutability": "view",
      "type": "function"
    },
    {
      "inputs": [
        {
          "internalType": "address",
          "name": "to",
          "type": "address"
        },
        {
          "internalType": "uint256",
          "name": "value",
          "type": "uint256"
        },
        {
          "internalType": "uint256",
          "name": "condition_id",
          "type": "uint256"
        }
      ],
      "name": "transfer",
      "outputs": [
        {
          "internalType": "bool",
          "name": "",
          "type": "bool"
        }
      ],
      "stateMutability": "nonpayable",
      "type": "function"
    },
    {
      "inputs": [
        {
          "internalType": "address",
          "name": "from",
          "type": "address"
        },
        {
          "internalType": "address",
          "name": "to",
          "type": "address"
        },
        {
          "internalType": "uint256",
          "name": "value",
          "type": "uint256"
        },
        {
          "internalType": "uint256",
          "name": "condition_id",
          "type": "uint256"
        }
      ],
      "name": "transferFrom",
      "outputs": [
        {
          "internalType": "bool",
          "name": "",
          "type": "bool"
        }
      ],
      "stateMutability": "nonpayable",
      "type": "function"
    },
    {
      "inputs": [],
      "name": "underlying",
      "outputs": [
        {
          "internalType": "contract IERC20",
          "name": "",
          "type": "address"
        }
      ],
      "stateMutability": "view",
      "type": "function"
    },
    {
      "inputs": [
        {
          "internalType": "address",
          "name": "",
          "type": "address"
        },
        {
          "internalType": "uint256",
          "name": "",
          "type": "uint256"
        }
      ],
      "name": "user_to_conditions",
      "outputs": [
        {
          "internalType": "uint256",
          "name": "id",
          "type": "uint256"
        },
        {
          "internalType": "uint256",
          "name": "amount",
          "type": "uint256"
        },
        {
          "internalType": "address",
          "name": "condition_contract",
          "type": "address"
        }
      ],
      "stateMutability": "view",
      "type": "function"
    },
    {
      "inputs": [
        {
          "internalType": "address",
          "name": "account",
          "type": "address"
        },
        {
          "internalType": "uint256",
          "name": "value",
          "type": "uint256"
        },
        {
          "internalType": "uint256",
          "name": "condition_id",
          "type": "uint256"
        },
        {
          "internalType": "bytes",
          "name": "data",
          "type": "bytes"
        }
      ],
      "name": "withdrawTo",
      "outputs": [
        {
          "internalType": "bool",
          "name": "",
          "type": "bool"
        }
      ],
      "stateMutability": "nonpayable",
      "type": "function"
    }
  ],
  "bytecode": "0x60a06040523480156200001157600080fd5b5060405162002f7538038062002f75833981810160405281019062000037919062000317565b3073ffffffffffffffffffffffffffffffffffffffff168373ffffffffffffffffffffffffffffffffffffffff1603620000aa57306040517f438d6fe3000000000000000000000000000000000000000000000000000000008152600401620000a19190620003c2565b60405180910390fd5b8273ffffffffffffffffffffffffffffffffffffffff1660808173ffffffffffffffffffffffffffffffffffffffff16815250508160049081620000ef91906200062a565b5080600590816200010191906200062a565b5050505062000711565b6000604051905090565b600080fd5b600080fd5b600073ffffffffffffffffffffffffffffffffffffffff82169050919050565b60006200014c826200011f565b9050919050565b600062000160826200013f565b9050919050565b620001728162000153565b81146200017e57600080fd5b50565b600081519050620001928162000167565b92915050565b600080fd5b600080fd5b6000601f19601f8301169050919050565b7f4e487b7100000000000000000000000000000000000000000000000000000000600052604160045260246000fd5b620001ed82620001a2565b810181811067ffffffffffffffff821117156200020f576200020e620001b3565b5b80604052505050565b6000620002246200010b565b9050620002328282620001e2565b919050565b600067ffffffffffffffff821115620002555762000254620001b3565b5b6200026082620001a2565b9050602081019050919050565b60005b838110156200028d57808201518184015260208101905062000270565b60008484015250505050565b6000620002b0620002aa8462000237565b62000218565b905082815260208101848484011115620002cf57620002ce6200019d565b5b620002dc8482856200026d565b509392505050565b600082601f830112620002fc57620002fb62000198565b5b81516200030e84826020860162000299565b91505092915050565b60008060006060848603121562000333576200033262000115565b5b6000620003438682870162000181565b935050602084015167ffffffffffffffff8111156200036757620003666200011a565b5b6200037586828701620002e4565b925050604084015167ffffffffffffffff8111156200039957620003986200011a565b5b620003a786828701620002e4565b9150509250925092565b620003bc816200013f565b82525050565b6000602082019050620003d96000830184620003b1565b92915050565b600081519050919050565b7f4e487b7100000000000000000000000000000000000000000000000000000000600052602260045260246000fd5b600060028204905060018216806200043257607f821691505b602082108103620004485762000447620003ea565b5b50919050565b60008190508160005260206000209050919050565b60006020601f8301049050919050565b600082821b905092915050565b600060088302620004b27fffffffffffffffffffffffffffffffffffffffffffffffffffffffffffffffff8262000473565b620004be868362000473565b95508019841693508086168417925050509392505050565b6000819050919050565b6000819050919050565b60006200050b62000505620004ff84620004d6565b620004e0565b620004d6565b9050919050565b6000819050919050565b6200052783620004ea565b6200053f620005368262000512565b84845462000480565b825550505050565b600090565b6200055662000547565b620005638184846200051c565b505050565b5b818110156200058b576200057f6000826200054c565b60018101905062000569565b5050565b601f821115620005da57620005a4816200044e565b620005af8462000463565b81016020851015620005bf578190505b620005d7620005ce8562000463565b83018262000568565b50505b505050565b600082821c905092915050565b6000620005ff60001984600802620005df565b1980831691505092915050565b60006200061a8383620005ec565b9150826002028217905092915050565b6200063582620003df565b67ffffffffffffffff811115620006515762000650620001b3565b5b6200065d825462000419565b6200066a8282856200058f565b600060209050601f831160018114620006a257600084156200068d578287015190505b6200069985826200060c565b86555062000709565b601f198416620006b2866200044e565b60005b82811015620006dc57848901518255600182019150602085019450602081019050620006b5565b86831015620006fc5784890151620006f8601f891682620005ec565b8355505b6001600288020188555050505b505050505050565b6080516128336200074260003960008181610730015281816107d7015281816108d80152610afe01526128336000f3fe608060405234801561001057600080fd5b50600436106100f55760003560e01c80636f307dc311610097578063b2bbaf7011610066578063b2bbaf70146102a0578063c8820f6c146102d0578063dd62ed3e14610300578063fe99049a14610330576100f5565b80636f307dc31461021657806370a082311461023457806395d89b41146102645780639e57366514610282576100f5565b806318160ddd116100d357806318160ddd146101785780632cd119b8146101965780632e51d6c3146101c6578063313ce567146101f8576100f5565b806306fdde03146100fa578063095bcdb614610118578063095ea7b314610148575b600080fd5b610102610360565b60405161010f9190611d1e565b60405180910390f35b610132600480360381019061012d9190611de8565b6103f2565b60405161013f9190611e56565b60405180910390f35b610162600480360381019061015d9190611e71565b610417565b60405161016f9190611e56565b60405180910390f35b61018061043a565b60405161018d9190611ec0565b60405180910390f35b6101b060048036038101906101ab9190612010565b610444565b6040516101bd9190611e56565b60405180910390f35b6101e060048036038101906101db9190611e71565b610763565b6040516101ef939291906120a2565b60405180910390f35b6102006107ca565b60405161020d91906120f5565b60405180910390f35b61021e6107d3565b60405161022b919061216f565b60405180910390f35b61024e6004803603810190610249919061218a565b6107fb565b60405161025b9190611ec0565b60405180910390f35b61026c610844565b6040516102799190611d1e565b60405180910390f35b61028a6108d6565b604051610297919061216f565b60405180910390f35b6102ba60048036038101906102b5919061218a565b6108fa565b6040516102c791906122c6565b60405180910390f35b6102ea60048036038101906102e591906122e8565b610a01565b6040516102f79190611e56565b60405180910390f35b61031a6004803603810190610315919061233b565b610b3b565b6040516103279190611ec0565b60405180910390f35b61034a6004803603810190610345919061237b565b610bc2565b6040516103579190611e56565b60405180910390f35b60606004805461036f90612411565b80601f016020809104026020016040519081016040528092919081815260200182805461039b90612411565b80156103e85780601f106103bd576101008083540402835291602001916103e8565b820191906000526020600020905b8154815290600101906020018083116103cb57829003601f168201915b5050505050905090565b6000806103fd610bf3565b905061040b81868686610bfb565b60019150509392505050565b600080610422610bf3565b905061042f818585610d60565b600191505092915050565b6000600354905090565b60003073ffffffffffffffffffffffffffffffffffffffff168573ffffffffffffffffffffffffffffffffffffffff16036104b657846040517fec442f050000000000000000000000000000000000000000000000000000000081526004016104ad9190612442565b60405180910390fd5b6000803373ffffffffffffffffffffffffffffffffffffffff1673ffffffffffffffffffffffffffffffffffffffff16815260200190815260200160002083815481106105065761050561245d565b5b90600052602060002090600302016001015484111561055a576040517f08c379a0000000000000000000000000000000000000000000000000000000008152600401610551906124d8565b60405180910390fd5b836000803373ffffffffffffffffffffffffffffffffffffffff1673ffffffffffffffffffffffffffffffffffffffff16815260200190815260200160002084815481106105ab576105aa61245d565b5b906000526020600020906003020160010160008282546105cb9190612527565b9250508190555060008060003373ffffffffffffffffffffffffffffffffffffffff1673ffffffffffffffffffffffffffffffffffffffff16815260200190815260200160002084815481106106245761062361245d565b5b906000526020600020906003020160020160009054906101000a900473ffffffffffffffffffffffffffffffffffffffff169050600115158173ffffffffffffffffffffffffffffffffffffffff1663b0c45ec5856040518263ffffffff1660e01b815260040161069591906125b0565b6020604051808303816000875af11580156106b4573d6000803e3d6000fd5b505050506040513d601f19601f820116820180604052508101906106d891906125fe565b15151461071a576040517f08c379a000000000000000000000000000000000000000000000000000000000815260040161071190612677565b60405180910390fd5b61072b610725610bf3565b86610d72565b6107567f00000000000000000000000000000000000000000000000000000000000000008787610df4565b6001915050949350505050565b6000602052816000526040600020818154811061077f57600080fd5b9060005260206000209060030201600091509150508060000154908060010154908060020160009054906101000a900473ffffffffffffffffffffffffffffffffffffffff16905083565b60006012905090565b60007f0000000000000000000000000000000000000000000000000000000000000000905090565b6000600160008373ffffffffffffffffffffffffffffffffffffffff1673ffffffffffffffffffffffffffffffffffffffff168152602001908152602001600020549050919050565b60606005805461085390612411565b80601f016020809104026020016040519081016040528092919081815260200182805461087f90612411565b80156108cc5780601f106108a1576101008083540402835291602001916108cc565b820191906000526020600020905b8154815290600101906020018083116108af57829003601f168201915b5050505050905090565b7f000000000000000000000000000000000000000000000000000000000000000081565b60606000808373ffffffffffffffffffffffffffffffffffffffff1673ffffffffffffffffffffffffffffffffffffffff168152602001908152602001600020805480602002602001604051908101604052809291908181526020016000905b828210156109f6578382906000526020600020906003020160405180606001604052908160008201548152602001600182015481526020016002820160009054906101000a900473ffffffffffffffffffffffffffffffffffffffff1673ffffffffffffffffffffffffffffffffffffffff1673ffffffffffffffffffffffffffffffffffffffff16815250508152602001906001019061095a565b505050509050919050565b600080610a0c610bf3565b9050610a19858585610e73565b3073ffffffffffffffffffffffffffffffffffffffff168173ffffffffffffffffffffffffffffffffffffffff1603610a8957306040517f96c6fd1e000000000000000000000000000000000000000000000000000000008152600401610a809190612442565b60405180910390fd5b3073ffffffffffffffffffffffffffffffffffffffff168573ffffffffffffffffffffffffffffffffffffffff1603610af957846040517fec442f05000000000000000000000000000000000000000000000000000000008152600401610af09190612442565b60405180910390fd5b610b257f0000000000000000000000000000000000000000000000000000000000000000823087610fd3565b610b2f8585611055565b60019150509392505050565b6000600260008473ffffffffffffffffffffffffffffffffffffffff1673ffffffffffffffffffffffffffffffffffffffff16815260200190815260200160002060008373ffffffffffffffffffffffffffffffffffffffff1673ffffffffffffffffffffffffffffffffffffffff16815260200190815260200160002054905092915050565b600080610bcd610bf3565b9050610bda8682866110d7565b610be686868686610bfb565b6001915050949350505050565b600033905090565b600073ffffffffffffffffffffffffffffffffffffffff168473ffffffffffffffffffffffffffffffffffffffff1603610c6d5760006040517f96c6fd1e000000000000000000000000000000000000000000000000000000008152600401610c649190612442565b60405180910390fd5b600073ffffffffffffffffffffffffffffffffffffffff168373ffffffffffffffffffffffffffffffffffffffff1603610cdf5760006040517fec442f05000000000000000000000000000000000000000000000000000000008152600401610cd69190612442565b60405180910390fd5b6000808573ffffffffffffffffffffffffffffffffffffffff1673ffffffffffffffffffffffffffffffffffffffff1681526020019081526020016000208181548110610d2f57610d2e61245d565b5b906000526020600020906003020160010154821115610d4d57600080fd5b610d598484848461116b565b5050505050565b610d6d838383600161160a565b505050565b600073ffffffffffffffffffffffffffffffffffffffff168273ffffffffffffffffffffffffffffffffffffffff1603610de45760006040517f96c6fd1e000000000000000000000000000000000000000000000000000000008152600401610ddb9190612442565b60405180910390fd5b610df0826000836117e1565b5050565b610e6e838473ffffffffffffffffffffffffffffffffffffffff1663a9059cbb8585604051602401610e27929190612697565b604051602081830303815290604052915060e01b6020820180517bffffffffffffffffffffffffffffffffffffffffffffffffffffffff8381831617835250505050611a09565b505050565b610e7b611c57565b6000808573ffffffffffffffffffffffffffffffffffffffff1673ffffffffffffffffffffffffffffffffffffffff168152602001908152602001600020805490508160000181815250508281602001818152505081816040019073ffffffffffffffffffffffffffffffffffffffff16908173ffffffffffffffffffffffffffffffffffffffff16815250506000808573ffffffffffffffffffffffffffffffffffffffff1673ffffffffffffffffffffffffffffffffffffffff168152602001908152602001600020819080600181540180825580915050600190039060005260206000209060030201600090919091909150600082015181600001556020820151816001015560408201518160020160006101000a81548173ffffffffffffffffffffffffffffffffffffffff021916908373ffffffffffffffffffffffffffffffffffffffff160217905550505050505050565b61104f848573ffffffffffffffffffffffffffffffffffffffff166323b872dd868686604051602401611008939291906126c0565b604051602081830303815290604052915060e01b6020820180517bffffffffffffffffffffffffffffffffffffffffffffffffffffffff8381831617835250505050611a09565b50505050565b600073ffffffffffffffffffffffffffffffffffffffff168273ffffffffffffffffffffffffffffffffffffffff16036110c75760006040517fec442f050000000000000000000000000000000000000000000000000000000081526004016110be9190612442565b60405180910390fd5b6110d3600083836117e1565b5050565b60006110e38484610b3b565b90507fffffffffffffffffffffffffffffffffffffffffffffffffffffffffffffffff81146111655781811015611155578281836040517ffb8f41b200000000000000000000000000000000000000000000000000000000815260040161114c939291906126f7565b60405180910390fd5b6111648484848403600061160a565b5b50505050565b6000806000808773ffffffffffffffffffffffffffffffffffffffff1673ffffffffffffffffffffffffffffffffffffffff16815260200190815260200160002083815481106111be576111bd61245d565b5b906000526020600020906003020160020160009054906101000a900473ffffffffffffffffffffffffffffffffffffffff16905060008060008773ffffffffffffffffffffffffffffffffffffffff1673ffffffffffffffffffffffffffffffffffffffff168152602001908152602001600020805490500361135457836000808873ffffffffffffffffffffffffffffffffffffffff1673ffffffffffffffffffffffffffffffffffffffff168152602001908152602001600020848154811061128c5761128b61245d565b5b906000526020600020906003020160010160008282546112ac9190612527565b9250508190555061133f85856000808a73ffffffffffffffffffffffffffffffffffffffff1673ffffffffffffffffffffffffffffffffffffffff16815260200190815260200160002086815481106113085761130761245d565b5b906000526020600020906003020160020160009054906101000a900473ffffffffffffffffffffffffffffffffffffffff16610e73565b61134a8686866117e1565b6001915050611602565b60005b6000808773ffffffffffffffffffffffffffffffffffffffff1673ffffffffffffffffffffffffffffffffffffffff168152602001908152602001600020805490508110156115ff576000808773ffffffffffffffffffffffffffffffffffffffff1673ffffffffffffffffffffffffffffffffffffffff16815260200190815260200160002081815481106113f0576113ef61245d565b5b906000526020600020906003020160020160009054906101000a900473ffffffffffffffffffffffffffffffffffffffff1673ffffffffffffffffffffffffffffffffffffffff168273ffffffffffffffffffffffffffffffffffffffff16036114dc57846000808873ffffffffffffffffffffffffffffffffffffffff1673ffffffffffffffffffffffffffffffffffffffff16815260200190815260200160002082815481106114a5576114a461245d565b5b906000526020600020906003020160010160008282546114c5919061272e565b925050819055506114d78787876117e1565b6115ec565b846000808973ffffffffffffffffffffffffffffffffffffffff1673ffffffffffffffffffffffffffffffffffffffff168152602001908152602001600020858154811061152d5761152c61245d565b5b9060005260206000209060030201600101600082825461154d9190612527565b925050819055506115e086866000808b73ffffffffffffffffffffffffffffffffffffffff1673ffffffffffffffffffffffffffffffffffffffff16815260200190815260200160002087815481106115a9576115a861245d565b5b906000526020600020906003020160020160009054906101000a900473ffffffffffffffffffffffffffffffffffffffff16610e73565b6115eb8787876117e1565b5b80806115f790612762565b915050611357565b50505b949350505050565b600073ffffffffffffffffffffffffffffffffffffffff168473ffffffffffffffffffffffffffffffffffffffff160361167c5760006040517fe602df050000000000000000000000000000000000000000000000000000000081526004016116739190612442565b60405180910390fd5b600073ffffffffffffffffffffffffffffffffffffffff168373ffffffffffffffffffffffffffffffffffffffff16036116ee5760006040517f94280d620000000000000000000000000000000000000000000000000000000081526004016116e59190612442565b60405180910390fd5b81600260008673ffffffffffffffffffffffffffffffffffffffff1673ffffffffffffffffffffffffffffffffffffffff16815260200190815260200160002060008573ffffffffffffffffffffffffffffffffffffffff1673ffffffffffffffffffffffffffffffffffffffff1681526020019081526020016000208190555080156117db578273ffffffffffffffffffffffffffffffffffffffff168473ffffffffffffffffffffffffffffffffffffffff167f8c5be1e5ebec7d5bd14f71427d1e84f3dd0314c0f7b2291e5b200ac8c7c3b925846040516117d29190611ec0565b60405180910390a35b50505050565b600073ffffffffffffffffffffffffffffffffffffffff168373ffffffffffffffffffffffffffffffffffffffff1603611833578060036000828254611827919061272e565b92505081905550611908565b6000600160008573ffffffffffffffffffffffffffffffffffffffff1673ffffffffffffffffffffffffffffffffffffffff168152602001908152602001600020549050818110156118c0578381836040517fe450d38c0000000000000000000000000000000000000000000000000000000081526004016118b7939291906126f7565b60405180910390fd5b818103600160008673ffffffffffffffffffffffffffffffffffffffff1673ffffffffffffffffffffffffffffffffffffffff16815260200190815260200160002081905550505b600073ffffffffffffffffffffffffffffffffffffffff168273ffffffffffffffffffffffffffffffffffffffff1603611951578060036000828254039250508190555061199f565b80600160008473ffffffffffffffffffffffffffffffffffffffff1673ffffffffffffffffffffffffffffffffffffffff168152602001908152602001600020600082825401925050819055505b8173ffffffffffffffffffffffffffffffffffffffff168373ffffffffffffffffffffffffffffffffffffffff167fddf252ad1be2c89b69c2b068fc378daa952ba7f163c4a11628f55a4df523b3ef836040516119fc9190611ec0565b60405180910390a3505050565b6000611a34828473ffffffffffffffffffffffffffffffffffffffff16611aa090919063ffffffff16565b90506000815114158015611a59575080806020019051810190611a5791906125fe565b155b15611a9b57826040517f5274afe7000000000000000000000000000000000000000000000000000000008152600401611a929190612442565b60405180910390fd5b505050565b6060611aae83836000611ab6565b905092915050565b606081471015611afd57306040517fcd786059000000000000000000000000000000000000000000000000000000008152600401611af49190612442565b60405180910390fd5b6000808573ffffffffffffffffffffffffffffffffffffffff168486604051611b2691906127e6565b60006040518083038185875af1925050503d8060008114611b63576040519150601f19603f3d011682016040523d82523d6000602084013e611b68565b606091505b5091509150611b78868383611b83565b925050509392505050565b606082611b9857611b9382611c12565b611c0a565b60008251148015611bc0575060008473ffffffffffffffffffffffffffffffffffffffff163b145b15611c0257836040517f9996b315000000000000000000000000000000000000000000000000000000008152600401611bf99190612442565b60405180910390fd5b819050611c0b565b5b9392505050565b600081511115611c255780518082602001fd5b6040517f1425ea4200000000000000000000000000000000000000000000000000000000815260040160405180910390fd5b60405180606001604052806000815260200160008152602001600073ffffffffffffffffffffffffffffffffffffffff1681525090565b600081519050919050565b600082825260208201905092915050565b60005b83811015611cc8578082015181840152602081019050611cad565b60008484015250505050565b6000601f19601f8301169050919050565b6000611cf082611c8e565b611cfa8185611c99565b9350611d0a818560208601611caa565b611d1381611cd4565b840191505092915050565b60006020820190508181036000830152611d388184611ce5565b905092915050565b6000604051905090565b600080fd5b600080fd5b600073ffffffffffffffffffffffffffffffffffffffff82169050919050565b6000611d7f82611d54565b9050919050565b611d8f81611d74565b8114611d9a57600080fd5b50565b600081359050611dac81611d86565b92915050565b6000819050919050565b611dc581611db2565b8114611dd057600080fd5b50565b600081359050611de281611dbc565b92915050565b600080600060608486031215611e0157611e00611d4a565b5b6000611e0f86828701611d9d565b9350506020611e2086828701611dd3565b9250506040611e3186828701611dd3565b9150509250925092565b60008115159050919050565b611e5081611e3b565b82525050565b6000602082019050611e6b6000830184611e47565b92915050565b60008060408385031215611e8857611e87611d4a565b5b6000611e9685828601611d9d565b9250506020611ea785828601611dd3565b9150509250929050565b611eba81611db2565b82525050565b6000602082019050611ed56000830184611eb1565b92915050565b600080fd5b600080fd5b7f4e487b7100000000000000000000000000000000000000000000000000000000600052604160045260246000fd5b611f1d82611cd4565b810181811067ffffffffffffffff82111715611f3c57611f3b611ee5565b5b80604052505050565b6000611f4f611d40565b9050611f5b8282611f14565b919050565b600067ffffffffffffffff821115611f7b57611f7a611ee5565b5b611f8482611cd4565b9050602081019050919050565b82818337600083830152505050565b6000611fb3611fae84611f60565b611f45565b905082815260208101848484011115611fcf57611fce611ee0565b5b611fda848285611f91565b509392505050565b600082601f830112611ff757611ff6611edb565b5b8135612007848260208601611fa0565b91505092915050565b6000806000806080858703121561202a57612029611d4a565b5b600061203887828801611d9d565b945050602061204987828801611dd3565b935050604061205a87828801611dd3565b925050606085013567ffffffffffffffff81111561207b5761207a611d4f565b5b61208787828801611fe2565b91505092959194509250565b61209c81611d74565b82525050565b60006060820190506120b76000830186611eb1565b6120c46020830185611eb1565b6120d16040830184612093565b949350505050565b600060ff82169050919050565b6120ef816120d9565b82525050565b600060208201905061210a60008301846120e6565b92915050565b6000819050919050565b600061213561213061212b84611d54565b612110565b611d54565b9050919050565b60006121478261211a565b9050919050565b60006121598261213c565b9050919050565b6121698161214e565b82525050565b60006020820190506121846000830184612160565b92915050565b6000602082840312156121a05761219f611d4a565b5b60006121ae84828501611d9d565b91505092915050565b600081519050919050565b600082825260208201905092915050565b6000819050602082019050919050565b6121ec81611db2565b82525050565b6121fb81611d74565b82525050565b60608201600082015161221760008501826121e3565b50602082015161222a60208501826121e3565b50604082015161223d60408501826121f2565b50505050565b600061224f8383612201565b60608301905092915050565b6000602082019050919050565b6000612273826121b7565b61227d81856121c2565b9350612288836121d3565b8060005b838110156122b95781516122a08882612243565b97506122ab8361225b565b92505060018101905061228c565b5085935050505092915050565b600060208201905081810360008301526122e08184612268565b905092915050565b60008060006060848603121561230157612300611d4a565b5b600061230f86828701611d9d565b935050602061232086828701611dd3565b925050604061233186828701611d9d565b9150509250925092565b6000806040838503121561235257612351611d4a565b5b600061236085828601611d9d565b925050602061237185828601611d9d565b9150509250929050565b6000806000806080858703121561239557612394611d4a565b5b60006123a387828801611d9d565b94505060206123b487828801611d9d565b93505060406123c587828801611dd3565b92505060606123d687828801611dd3565b91505092959194509250565b7f4e487b7100000000000000000000000000000000000000000000000000000000600052602260045260246000fd5b6000600282049050600182168061242957607f821691505b60208210810361243c5761243b6123e2565b5b50919050565b60006020820190506124576000830184612093565b92915050565b7f4e487b7100000000000000000000000000000000000000000000000000000000600052603260045260246000fd5b7f56616c75652069732077726f6e67000000000000000000000000000000000000600082015250565b60006124c2600e83611c99565b91506124cd8261248c565b602082019050919050565b600060208201905081810360008301526124f1816124b5565b9050919050565b7f4e487b7100000000000000000000000000000000000000000000000000000000600052601160045260246000fd5b600061253282611db2565b915061253d83611db2565b9250828203905081811115612555576125546124f8565b5b92915050565b600081519050919050565b600082825260208201905092915050565b60006125828261255b565b61258c8185612566565b935061259c818560208601611caa565b6125a581611cd4565b840191505092915050565b600060208201905081810360008301526125ca8184612577565b905092915050565b6125db81611e3b565b81146125e657600080fd5b50565b6000815190506125f8816125d2565b92915050565b60006020828403121561261457612613611d4a565b5b6000612622848285016125e9565b91505092915050565b7f436f6e646974696f6e20636f6e74726163742072657665727465640000000000600082015250565b6000612661601b83611c99565b915061266c8261262b565b602082019050919050565b6000602082019050818103600083015261269081612654565b9050919050565b60006040820190506126ac6000830185612093565b6126b96020830184611eb1565b9392505050565b60006060820190506126d56000830186612093565b6126e26020830185612093565b6126ef6040830184611eb1565b949350505050565b600060608201905061270c6000830186612093565b6127196020830185611eb1565b6127266040830184611eb1565b949350505050565b600061273982611db2565b915061274483611db2565b925082820190508082111561275c5761275b6124f8565b5b92915050565b600061276d82611db2565b91507fffffffffffffffffffffffffffffffffffffffffffffffffffffffffffffffff820361279f5761279e6124f8565b5b600182019050919050565b600081905092915050565b60006127c08261255b565b6127ca81856127aa565b93506127da818560208601611caa565b80840191505092915050565b60006127f282846127b5565b91508190509291505056fea26469706673582212209558af50968494e2e71f17267c65daf5d18f61c70a32e41872104600cff843f064736f6c63430008140033",
  "linkReferences": {},
  "deployedLinkReferences": {}
}