{
  "_format": "hh-sol-artifact-1",
  "contractName": "PurposeWrapper",
  "sourceName": "src/PurposeWrapper.sol",
  "abi": [
    {
      "inputs": [
        {
          "internalType": "contract IERC20",
          "name": "underlyingToken",
          "type": "address"
        },
        {
          "internalType": "string",
          "name": "Name",
          "type": "string"
        },
        {
          "internalType": "string",
          "name": "Symbol",
          "type": "string"
        }
      ],
      "stateMutability": "nonpayable",
      "type": "constructor"
    },
    {
      "inputs": [
        {
          "internalType": "address",
          "name": "target",
          "type": "address"
        }
      ],
      "name": "AddressEmptyCode",
      "type": "error"
    },
    {
      "inputs": [
        {
          "internalType": "address",
          "name": "account",
          "type": "address"
        }
      ],
      "name": "AddressInsufficientBalance",
      "type": "error"
    },
    {
      "inputs": [
        {
          "internalType": "address",
          "name": "spender",
          "type": "address"
        },
        {
          "internalType": "uint256",
          "name": "allowance",
          "type": "uint256"
        },
        {
          "internalType": "uint256",
          "name": "needed",
          "type": "uint256"
        }
      ],
      "name": "ERC20InsufficientAllowance",
      "type": "error"
    },
    {
      "inputs": [
        {
          "internalType": "address",
          "name": "sender",
          "type": "address"
        },
        {
          "internalType": "uint256",
          "name": "balance",
          "type": "uint256"
        },
        {
          "internalType": "uint256",
          "name": "needed",
          "type": "uint256"
        }
      ],
      "name": "ERC20InsufficientBalance",
      "type": "error"
    },
    {
      "inputs": [
        {
          "internalType": "address",
          "name": "approver",
          "type": "address"
        }
      ],
      "name": "ERC20InvalidApprover",
      "type": "error"
    },
    {
      "inputs": [
        {
          "internalType": "address",
          "name": "receiver",
          "type": "address"
        }
      ],
      "name": "ERC20InvalidReceiver",
      "type": "error"
    },
    {
      "inputs": [
        {
          "internalType": "address",
          "name": "sender",
          "type": "address"
        }
      ],
      "name": "ERC20InvalidSender",
      "type": "error"
    },
    {
      "inputs": [
        {
          "internalType": "address",
          "name": "spender",
          "type": "address"
        }
      ],
      "name": "ERC20InvalidSpender",
      "type": "error"
    },
    {
      "inputs": [
        {
          "internalType": "address",
          "name": "token",
          "type": "address"
        }
      ],
      "name": "ERC20InvalidUnderlying",
      "type": "error"
    },
    {
      "inputs": [],
      "name": "FailedInnerCall",
      "type": "error"
    },
    {
      "inputs": [
        {
          "internalType": "address",
          "name": "token",
          "type": "address"
        }
      ],
      "name": "SafeERC20FailedOperation",
      "type": "error"
    },
    {
      "anonymous": false,
      "inputs": [
        {
          "indexed": true,
          "internalType": "address",
          "name": "owner",
          "type": "address"
        },
        {
          "indexed": true,
          "internalType": "address",
          "name": "spender",
          "type": "address"
        },
        {
          "indexed": false,
          "internalType": "uint256",
          "name": "value",
          "type": "uint256"
        }
      ],
      "name": "Approval",
      "type": "event"
    },
    {
      "anonymous": false,
      "inputs": [
        {
          "indexed": true,
          "internalType": "address",
          "name": "from",
          "type": "address"
        },
        {
          "indexed": true,
          "internalType": "address",
          "name": "to",
          "type": "address"
        },
        {
          "indexed": false,
          "internalType": "uint256",
          "name": "value",
          "type": "uint256"
        }
      ],
      "name": "Transfer",
      "type": "event"
    },
    {
      "inputs": [],
      "name": "_underlying",
      "outputs": [
        {
          "internalType": "contract IERC20",
          "name": "",
          "type": "address"
        }
      ],
      "stateMutability": "view",
      "type": "function"
    },
    {
      "inputs": [
        {
          "internalType": "address",
          "name": "owner",
          "type": "address"
        },
        {
          "internalType": "address",
          "name": "spender",
          "type": "address"
        }
      ],
      "name": "allowance",
      "outputs": [
        {
          "internalType": "uint256",
          "name": "",
          "type": "uint256"
        }
      ],
      "stateMutability": "view",
      "type": "function"
    },
    {
      "inputs": [
        {
          "internalType": "address",
          "name": "spender",
          "type": "address"
        },
        {
          "internalType": "uint256",
          "name": "value",
          "type": "uint256"
        }
      ],
      "name": "approve",
      "outputs": [
        {
          "internalType": "bool",
          "name": "",
          "type": "bool"
        }
      ],
      "stateMutability": "nonpayable",
      "type": "function"
    },
    {
      "inputs": [
        {
          "internalType": "address",
          "name": "account",
          "type": "address"
        }
      ],
      "name": "balanceOf",
      "outputs": [
        {
          "internalType": "uint256",
          "name": "",
          "type": "uint256"
        }
      ],
      "stateMutability": "view",
      "type": "function"
    },
    {
      "inputs": [],
      "name": "decimals",
      "outputs": [
        {
          "internalType": "uint8",
          "name": "",
          "type": "uint8"
        }
      ],
      "stateMutability": "view",
      "type": "function"
    },
    {
      "inputs": [
        {
          "internalType": "address",
          "name": "account",
          "type": "address"
        },
        {
          "internalType": "uint256",
          "name": "value",
          "type": "uint256"
        },
        {
          "internalType": "address",
          "name": "condition_contract",
          "type": "address"
        }
      ],
      "name": "depositFor",
      "outputs": [
        {
          "internalType": "bool",
          "name": "",
          "type": "bool"
        }
      ],
      "stateMutability": "nonpayable",
      "type": "function"
    },
    {
      "inputs": [
        {
          "internalType": "address",
          "name": "user",
          "type": "address"
        }
      ],
      "name": "getCondition",
      "outputs": [
        {
          "components": [
            {
              "internalType": "uint256",
              "name": "id",
              "type": "uint256"
            },
            {
              "internalType": "uint256",
              "name": "amount",
              "type": "uint256"
            },
            {
              "internalType": "address",
              "name": "condition_contract",
              "type": "address"
            }
          ],
          "internalType": "struct PurposeWrapper.Condition[]",
          "name": "",
          "type": "tuple[]"
        }
      ],
      "stateMutability": "view",
      "type": "function"
    },
    {
      "inputs": [],
      "name": "name",
      "outputs": [
        {
          "internalType": "string",
          "name": "",
          "type": "string"
        }
      ],
      "stateMutability": "view",
      "type": "function"
    },
    {
      "inputs": [],
      "name": "symbol",
      "outputs": [
        {
          "internalType": "string",
          "name": "",
          "type": "string"
        }
      ],
      "stateMutability": "view",
      "type": "function"
    },
    {
      "inputs": [],
      "name": "totalSupply",
      "outputs": [
        {
          "internalType": "uint256",
          "name": "",
          "type": "uint256"
        }
      ],
      "stateMutability": "view",
      "type": "function"
    },
    {
      "inputs": [
        {
          "internalType": "address",
          "name": "to",
          "type": "address"
        },
        {
          "internalType": "uint256",
          "name": "value",
          "type": "uint256"
        },
        {
          "internalType": "uint256",
          "name": "condition_id",
          "type": "uint256"
        }
      ],
      "name": "transfer",
      "outputs": [
        {
          "internalType": "bool",
          "name": "",
          "type": "bool"
        }
      ],
      "stateMutability": "nonpayable",
      "type": "function"
    },
    {
      "inputs": [
        {
          "internalType": "address",
          "name": "from",
          "type": "address"
        },
        {
          "internalType": "address",
          "name": "to",
          "type": "address"
        },
        {
          "internalType": "uint256",
          "name": "value",
          "type": "uint256"
        },
        {
          "internalType": "uint256",
          "name": "condition_id",
          "type": "uint256"
        }
      ],
      "name": "transferFrom",
      "outputs": [
        {
          "internalType": "bool",
          "name": "",
          "type": "bool"
        }
      ],
      "stateMutability": "nonpayable",
      "type": "function"
    },
    {
      "inputs": [],
      "name": "underlying",
      "outputs": [
        {
          "internalType": "contract IERC20",
          "name": "",
          "type": "address"
        }
      ],
      "stateMutability": "view",
      "type": "function"
    },
    {
      "inputs": [
        {
          "internalType": "address",
          "name": "",
          "type": "address"
        },
        {
          "internalType": "uint256",
          "name": "",
          "type": "uint256"
        }
      ],
      "name": "user_to_conditions",
      "outputs": [
        {
          "internalType": "uint256",
          "name": "id",
          "type": "uint256"
        },
        {
          "internalType": "uint256",
          "name": "amount",
          "type": "uint256"
        },
        {
          "internalType": "address",
          "name": "condition_contract",
          "type": "address"
        }
      ],
      "stateMutability": "view",
      "type": "function"
    },
    {
      "inputs": [
        {
          "internalType": "address",
          "name": "account",
          "type": "address"
        },
        {
          "internalType": "uint256",
          "name": "value",
          "type": "uint256"
        },
        {
          "internalType": "uint256",
          "name": "condition_id",
          "type": "uint256"
        },
        {
          "internalType": "bytes",
          "name": "data",
          "type": "bytes"
        }
      ],
      "name": "withdrawTo",
      "outputs": [
        {
          "internalType": "bool",
          "name": "",
          "type": "bool"
        }
      ],
      "stateMutability": "nonpayable",
      "type": "function"
    }
  ],
  "bytecode": "0x60a06040523480156200001157600080fd5b50604051620030fd380380620030fd833981810160405281019062000037919062000317565b3073ffffffffffffffffffffffffffffffffffffffff168373ffffffffffffffffffffffffffffffffffffffff1603620000aa57306040517f438d6fe3000000000000000000000000000000000000000000000000000000008152600401620000a19190620003c2565b60405180910390fd5b8273ffffffffffffffffffffffffffffffffffffffff1660808173ffffffffffffffffffffffffffffffffffffffff16815250508160049081620000ef91906200062a565b5080600590816200010191906200062a565b5050505062000711565b6000604051905090565b600080fd5b600080fd5b600073ffffffffffffffffffffffffffffffffffffffff82169050919050565b60006200014c826200011f565b9050919050565b600062000160826200013f565b9050919050565b620001728162000153565b81146200017e57600080fd5b50565b600081519050620001928162000167565b92915050565b600080fd5b600080fd5b6000601f19601f8301169050919050565b7f4e487b7100000000000000000000000000000000000000000000000000000000600052604160045260246000fd5b620001ed82620001a2565b810181811067ffffffffffffffff821117156200020f576200020e620001b3565b5b80604052505050565b6000620002246200010b565b9050620002328282620001e2565b919050565b600067ffffffffffffffff821115620002555762000254620001b3565b5b6200026082620001a2565b9050602081019050919050565b60005b838110156200028d57808201518184015260208101905062000270565b60008484015250505050565b6000620002b0620002aa8462000237565b62000218565b905082815260208101848484011115620002cf57620002ce6200019d565b5b620002dc8482856200026d565b509392505050565b600082601f830112620002fc57620002fb62000198565b5b81516200030e84826020860162000299565b91505092915050565b60008060006060848603121562000333576200033262000115565b5b6000620003438682870162000181565b935050602084015167ffffffffffffffff8111156200036757620003666200011a565b5b6200037586828701620002e4565b925050604084015167ffffffffffffffff8111156200039957620003986200011a565b5b620003a786828701620002e4565b9150509250925092565b620003bc816200013f565b82525050565b6000602082019050620003d96000830184620003b1565b92915050565b600081519050919050565b7f4e487b7100000000000000000000000000000000000000000000000000000000600052602260045260246000fd5b600060028204905060018216806200043257607f821691505b602082108103620004485762000447620003ea565b5b50919050565b60008190508160005260206000209050919050565b60006020601f8301049050919050565b600082821b905092915050565b600060088302620004b27fffffffffffffffffffffffffffffffffffffffffffffffffffffffffffffffff8262000473565b620004be868362000473565b95508019841693508086168417925050509392505050565b6000819050919050565b6000819050919050565b60006200050b62000505620004ff84620004d6565b620004e0565b620004d6565b9050919050565b6000819050919050565b6200052783620004ea565b6200053f620005368262000512565b84845462000480565b825550505050565b600090565b6200055662000547565b620005638184846200051c565b505050565b5b818110156200058b576200057f6000826200054c565b60018101905062000569565b5050565b601f821115620005da57620005a4816200044e565b620005af8462000463565b81016020851015620005bf578190505b620005d7620005ce8562000463565b83018262000568565b50505b505050565b600082821c905092915050565b6000620005ff60001984600802620005df565b1980831691505092915050565b60006200061a8383620005ec565b9150826002028217905092915050565b6200063582620003df565b67ffffffffffffffff811115620006515762000650620001b3565b5b6200065d825462000419565b6200066a8282856200058f565b600060209050601f831160018114620006a257600084156200068d578287015190505b6200069985826200060c565b86555062000709565b601f198416620006b2866200044e565b60005b82811015620006dc57848901518255600182019150602085019450602081019050620006b5565b86831015620006fc5784890151620006f8601f891682620005ec565b8355505b6001600288020188555050505b505050505050565b6080516129bb6200074260003960008181610808015281816108b1015281816109b20152610bd801526129bb6000f3fe608060405234801561001057600080fd5b50600436106100f55760003560e01c80636f307dc311610097578063b2bbaf7011610066578063b2bbaf70146102a0578063c8820f6c146102d0578063dd62ed3e14610300578063fe99049a14610330576100f5565b80636f307dc31461021657806370a082311461023457806395d89b41146102645780639e57366514610282576100f5565b806318160ddd116100d357806318160ddd146101785780632cd119b8146101965780632e51d6c3146101c6578063313ce567146101f8576100f5565b806306fdde03146100fa578063095bcdb614610118578063095ea7b314610148575b600080fd5b610102610360565b60405161010f9190611df8565b60405180910390f35b610132600480360381019061012d9190611ec2565b6103f2565b60405161013f9190611f30565b60405180910390f35b610162600480360381019061015d9190611f4b565b610417565b60405161016f9190611f30565b60405180910390f35b61018061043a565b60405161018d9190611f9a565b60405180910390f35b6101b060048036038101906101ab91906120ea565b610444565b6040516101bd9190611f30565b60405180910390f35b6101e060048036038101906101db9190611f4b565b61083d565b6040516101ef9392919061217c565b60405180910390f35b6102006108a4565b60405161020d91906121cf565b60405180910390f35b61021e6108ad565b60405161022b9190612249565b60405180910390f35b61024e60048036038101906102499190612264565b6108d5565b60405161025b9190611f9a565b60405180910390f35b61026c61091e565b6040516102799190611df8565b60405180910390f35b61028a6109b0565b6040516102979190612249565b60405180910390f35b6102ba60048036038101906102b59190612264565b6109d4565b6040516102c791906123a0565b60405180910390f35b6102ea60048036038101906102e591906123c2565b610adb565b6040516102f79190611f30565b60405180910390f35b61031a60048036038101906103159190612415565b610c15565b6040516103279190611f9a565b60405180910390f35b61034a60048036038101906103459190612455565b610c9c565b6040516103579190611f30565b60405180910390f35b60606004805461036f906124eb565b80601f016020809104026020016040519081016040528092919081815260200182805461039b906124eb565b80156103e85780601f106103bd576101008083540402835291602001916103e8565b820191906000526020600020905b8154815290600101906020018083116103cb57829003601f168201915b5050505050905090565b6000806103fd610ccd565b905061040b81868686610cd5565b60019150509392505050565b600080610422610ccd565b905061042f818585610e3a565b600191505092915050565b6000600354905090565b60003073ffffffffffffffffffffffffffffffffffffffff168573ffffffffffffffffffffffffffffffffffffffff16036104b657846040517fec442f050000000000000000000000000000000000000000000000000000000081526004016104ad919061251c565b60405180910390fd5b6000803373ffffffffffffffffffffffffffffffffffffffff1673ffffffffffffffffffffffffffffffffffffffff168152602001908152602001600020838154811061050657610505612537565b5b90600052602060002090600302016001015484111561055a576040517f08c379a0000000000000000000000000000000000000000000000000000000008152600401610551906125b2565b60405180910390fd5b836000803373ffffffffffffffffffffffffffffffffffffffff1673ffffffffffffffffffffffffffffffffffffffff16815260200190815260200160002084815481106105ab576105aa612537565b5b906000526020600020906003020160010160008282546105cb9190612601565b9250508190555060008060003373ffffffffffffffffffffffffffffffffffffffff1673ffffffffffffffffffffffffffffffffffffffff168152602001908152602001600020848154811061062457610623612537565b5b906000526020600020906003020160020160009054906101000a900473ffffffffffffffffffffffffffffffffffffffff1690506000808273ffffffffffffffffffffffffffffffffffffffff168888876040516024016106879392919061268a565b6040516020818303038152906040527f42495c14000000000000000000000000000000000000000000000000000000007bffffffffffffffffffffffffffffffffffffffffffffffffffffffff19166020820180517bffffffffffffffffffffffffffffffffffffffffffffffffffffffff83818316178352505050506040516107119190612704565b6000604051808303816000865af19150503d806000811461074e576040519150601f19603f3d011682016040523d82523d6000602084013e610753565b606091505b509150915081610798576040517f08c379a000000000000000000000000000000000000000000000000000000000815260040161078f9061278d565b60405180910390fd5b60011515818060200190518101906107b091906127d9565b1515146107f2576040517f08c379a00000000000000000000000000000000000000000000000000000000081526004016107e990612852565b60405180910390fd5b6108036107fd610ccd565b88610e4c565b61082e7f00000000000000000000000000000000000000000000000000000000000000008989610ece565b60019350505050949350505050565b6000602052816000526040600020818154811061085957600080fd5b9060005260206000209060030201600091509150508060000154908060010154908060020160009054906101000a900473ffffffffffffffffffffffffffffffffffffffff16905083565b60006012905090565b60007f0000000000000000000000000000000000000000000000000000000000000000905090565b6000600160008373ffffffffffffffffffffffffffffffffffffffff1673ffffffffffffffffffffffffffffffffffffffff168152602001908152602001600020549050919050565b60606005805461092d906124eb565b80601f0160208091040260200160405190810160405280929190818152602001828054610959906124eb565b80156109a65780601f1061097b576101008083540402835291602001916109a6565b820191906000526020600020905b81548152906001019060200180831161098957829003601f168201915b5050505050905090565b7f000000000000000000000000000000000000000000000000000000000000000081565b60606000808373ffffffffffffffffffffffffffffffffffffffff1673ffffffffffffffffffffffffffffffffffffffff168152602001908152602001600020805480602002602001604051908101604052809291908181526020016000905b82821015610ad0578382906000526020600020906003020160405180606001604052908160008201548152602001600182015481526020016002820160009054906101000a900473ffffffffffffffffffffffffffffffffffffffff1673ffffffffffffffffffffffffffffffffffffffff1673ffffffffffffffffffffffffffffffffffffffff168152505081526020019060010190610a34565b505050509050919050565b600080610ae6610ccd565b9050610af3858585610f4d565b3073ffffffffffffffffffffffffffffffffffffffff168173ffffffffffffffffffffffffffffffffffffffff1603610b6357306040517f96c6fd1e000000000000000000000000000000000000000000000000000000008152600401610b5a919061251c565b60405180910390fd5b3073ffffffffffffffffffffffffffffffffffffffff168573ffffffffffffffffffffffffffffffffffffffff1603610bd357846040517fec442f05000000000000000000000000000000000000000000000000000000008152600401610bca919061251c565b60405180910390fd5b610bff7f00000000000000000000000000000000000000000000000000000000000000008230876110ad565b610c09858561112f565b60019150509392505050565b6000600260008473ffffffffffffffffffffffffffffffffffffffff1673ffffffffffffffffffffffffffffffffffffffff16815260200190815260200160002060008373ffffffffffffffffffffffffffffffffffffffff1673ffffffffffffffffffffffffffffffffffffffff16815260200190815260200160002054905092915050565b600080610ca7610ccd565b9050610cb48682866111b1565b610cc086868686610cd5565b6001915050949350505050565b600033905090565b600073ffffffffffffffffffffffffffffffffffffffff168473ffffffffffffffffffffffffffffffffffffffff1603610d475760006040517f96c6fd1e000000000000000000000000000000000000000000000000000000008152600401610d3e919061251c565b60405180910390fd5b600073ffffffffffffffffffffffffffffffffffffffff168373ffffffffffffffffffffffffffffffffffffffff1603610db95760006040517fec442f05000000000000000000000000000000000000000000000000000000008152600401610db0919061251c565b60405180910390fd5b6000808573ffffffffffffffffffffffffffffffffffffffff1673ffffffffffffffffffffffffffffffffffffffff1681526020019081526020016000208181548110610e0957610e08612537565b5b906000526020600020906003020160010154821115610e2757600080fd5b610e3384848484611245565b5050505050565b610e4783838360016116e4565b505050565b600073ffffffffffffffffffffffffffffffffffffffff168273ffffffffffffffffffffffffffffffffffffffff1603610ebe5760006040517f96c6fd1e000000000000000000000000000000000000000000000000000000008152600401610eb5919061251c565b60405180910390fd5b610eca826000836118bb565b5050565b610f48838473ffffffffffffffffffffffffffffffffffffffff1663a9059cbb8585604051602401610f01929190612872565b604051602081830303815290604052915060e01b6020820180517bffffffffffffffffffffffffffffffffffffffffffffffffffffffff8381831617835250505050611ae3565b505050565b610f55611d31565b6000808573ffffffffffffffffffffffffffffffffffffffff1673ffffffffffffffffffffffffffffffffffffffff168152602001908152602001600020805490508160000181815250508281602001818152505081816040019073ffffffffffffffffffffffffffffffffffffffff16908173ffffffffffffffffffffffffffffffffffffffff16815250506000808573ffffffffffffffffffffffffffffffffffffffff1673ffffffffffffffffffffffffffffffffffffffff168152602001908152602001600020819080600181540180825580915050600190039060005260206000209060030201600090919091909150600082015181600001556020820151816001015560408201518160020160006101000a81548173ffffffffffffffffffffffffffffffffffffffff021916908373ffffffffffffffffffffffffffffffffffffffff160217905550505050505050565b611129848573ffffffffffffffffffffffffffffffffffffffff166323b872dd8686866040516024016110e29392919061289b565b604051602081830303815290604052915060e01b6020820180517bffffffffffffffffffffffffffffffffffffffffffffffffffffffff8381831617835250505050611ae3565b50505050565b600073ffffffffffffffffffffffffffffffffffffffff168273ffffffffffffffffffffffffffffffffffffffff16036111a15760006040517fec442f05000000000000000000000000000000000000000000000000000000008152600401611198919061251c565b60405180910390fd5b6111ad600083836118bb565b5050565b60006111bd8484610c15565b90507fffffffffffffffffffffffffffffffffffffffffffffffffffffffffffffffff811461123f578181101561122f578281836040517ffb8f41b2000000000000000000000000000000000000000000000000000000008152600401611226939291906128d2565b60405180910390fd5b61123e848484840360006116e4565b5b50505050565b6000806000808773ffffffffffffffffffffffffffffffffffffffff1673ffffffffffffffffffffffffffffffffffffffff168152602001908152602001600020838154811061129857611297612537565b5b906000526020600020906003020160020160009054906101000a900473ffffffffffffffffffffffffffffffffffffffff16905060008060008773ffffffffffffffffffffffffffffffffffffffff1673ffffffffffffffffffffffffffffffffffffffff168152602001908152602001600020805490500361142e57836000808873ffffffffffffffffffffffffffffffffffffffff1673ffffffffffffffffffffffffffffffffffffffff168152602001908152602001600020848154811061136657611365612537565b5b906000526020600020906003020160010160008282546113869190612601565b9250508190555061141985856000808a73ffffffffffffffffffffffffffffffffffffffff1673ffffffffffffffffffffffffffffffffffffffff16815260200190815260200160002086815481106113e2576113e1612537565b5b906000526020600020906003020160020160009054906101000a900473ffffffffffffffffffffffffffffffffffffffff16610f4d565b6114248686866118bb565b60019150506116dc565b60005b6000808773ffffffffffffffffffffffffffffffffffffffff1673ffffffffffffffffffffffffffffffffffffffff168152602001908152602001600020805490508110156116d9576000808773ffffffffffffffffffffffffffffffffffffffff1673ffffffffffffffffffffffffffffffffffffffff16815260200190815260200160002081815481106114ca576114c9612537565b5b906000526020600020906003020160020160009054906101000a900473ffffffffffffffffffffffffffffffffffffffff1673ffffffffffffffffffffffffffffffffffffffff168273ffffffffffffffffffffffffffffffffffffffff16036115b657846000808873ffffffffffffffffffffffffffffffffffffffff1673ffffffffffffffffffffffffffffffffffffffff168152602001908152602001600020828154811061157f5761157e612537565b5b9060005260206000209060030201600101600082825461159f9190612909565b925050819055506115b18787876118bb565b6116c6565b846000808973ffffffffffffffffffffffffffffffffffffffff1673ffffffffffffffffffffffffffffffffffffffff168152602001908152602001600020858154811061160757611606612537565b5b906000526020600020906003020160010160008282546116279190612601565b925050819055506116ba86866000808b73ffffffffffffffffffffffffffffffffffffffff1673ffffffffffffffffffffffffffffffffffffffff168152602001908152602001600020878154811061168357611682612537565b5b906000526020600020906003020160020160009054906101000a900473ffffffffffffffffffffffffffffffffffffffff16610f4d565b6116c58787876118bb565b5b80806116d19061293d565b915050611431565b50505b949350505050565b600073ffffffffffffffffffffffffffffffffffffffff168473ffffffffffffffffffffffffffffffffffffffff16036117565760006040517fe602df0500000000000000000000000000000000000000000000000000000000815260040161174d919061251c565b60405180910390fd5b600073ffffffffffffffffffffffffffffffffffffffff168373ffffffffffffffffffffffffffffffffffffffff16036117c85760006040517f94280d620000000000000000000000000000000000000000000000000000000081526004016117bf919061251c565b60405180910390fd5b81600260008673ffffffffffffffffffffffffffffffffffffffff1673ffffffffffffffffffffffffffffffffffffffff16815260200190815260200160002060008573ffffffffffffffffffffffffffffffffffffffff1673ffffffffffffffffffffffffffffffffffffffff1681526020019081526020016000208190555080156118b5578273ffffffffffffffffffffffffffffffffffffffff168473ffffffffffffffffffffffffffffffffffffffff167f8c5be1e5ebec7d5bd14f71427d1e84f3dd0314c0f7b2291e5b200ac8c7c3b925846040516118ac9190611f9a565b60405180910390a35b50505050565b600073ffffffffffffffffffffffffffffffffffffffff168373ffffffffffffffffffffffffffffffffffffffff160361190d5780600360008282546119019190612909565b925050819055506119e2565b6000600160008573ffffffffffffffffffffffffffffffffffffffff1673ffffffffffffffffffffffffffffffffffffffff1681526020019081526020016000205490508181101561199a578381836040517fe450d38c000000000000000000000000000000000000000000000000000000008152600401611991939291906128d2565b60405180910390fd5b818103600160008673ffffffffffffffffffffffffffffffffffffffff1673ffffffffffffffffffffffffffffffffffffffff16815260200190815260200160002081905550505b600073ffffffffffffffffffffffffffffffffffffffff168273ffffffffffffffffffffffffffffffffffffffff1603611a2b5780600360008282540392505081905550611a79565b80600160008473ffffffffffffffffffffffffffffffffffffffff1673ffffffffffffffffffffffffffffffffffffffff168152602001908152602001600020600082825401925050819055505b8173ffffffffffffffffffffffffffffffffffffffff168373ffffffffffffffffffffffffffffffffffffffff167fddf252ad1be2c89b69c2b068fc378daa952ba7f163c4a11628f55a4df523b3ef83604051611ad69190611f9a565b60405180910390a3505050565b6000611b0e828473ffffffffffffffffffffffffffffffffffffffff16611b7a90919063ffffffff16565b90506000815114158015611b33575080806020019051810190611b3191906127d9565b155b15611b7557826040517f5274afe7000000000000000000000000000000000000000000000000000000008152600401611b6c919061251c565b60405180910390fd5b505050565b6060611b8883836000611b90565b905092915050565b606081471015611bd757306040517fcd786059000000000000000000000000000000000000000000000000000000008152600401611bce919061251c565b60405180910390fd5b6000808573ffffffffffffffffffffffffffffffffffffffff168486604051611c009190612704565b60006040518083038185875af1925050503d8060008114611c3d576040519150601f19603f3d011682016040523d82523d6000602084013e611c42565b606091505b5091509150611c52868383611c5d565b925050509392505050565b606082611c7257611c6d82611cec565b611ce4565b60008251148015611c9a575060008473ffffffffffffffffffffffffffffffffffffffff163b145b15611cdc57836040517f9996b315000000000000000000000000000000000000000000000000000000008152600401611cd3919061251c565b60405180910390fd5b819050611ce5565b5b9392505050565b600081511115611cff5780518082602001fd5b6040517f1425ea4200000000000000000000000000000000000000000000000000000000815260040160405180910390fd5b60405180606001604052806000815260200160008152602001600073ffffffffffffffffffffffffffffffffffffffff1681525090565b600081519050919050565b600082825260208201905092915050565b60005b83811015611da2578082015181840152602081019050611d87565b60008484015250505050565b6000601f19601f8301169050919050565b6000611dca82611d68565b611dd48185611d73565b9350611de4818560208601611d84565b611ded81611dae565b840191505092915050565b60006020820190508181036000830152611e128184611dbf565b905092915050565b6000604051905090565b600080fd5b600080fd5b600073ffffffffffffffffffffffffffffffffffffffff82169050919050565b6000611e5982611e2e565b9050919050565b611e6981611e4e565b8114611e7457600080fd5b50565b600081359050611e8681611e60565b92915050565b6000819050919050565b611e9f81611e8c565b8114611eaa57600080fd5b50565b600081359050611ebc81611e96565b92915050565b600080600060608486031215611edb57611eda611e24565b5b6000611ee986828701611e77565b9350506020611efa86828701611ead565b9250506040611f0b86828701611ead565b9150509250925092565b60008115159050919050565b611f2a81611f15565b82525050565b6000602082019050611f456000830184611f21565b92915050565b60008060408385031215611f6257611f61611e24565b5b6000611f7085828601611e77565b9250506020611f8185828601611ead565b9150509250929050565b611f9481611e8c565b82525050565b6000602082019050611faf6000830184611f8b565b92915050565b600080fd5b600080fd5b7f4e487b7100000000000000000000000000000000000000000000000000000000600052604160045260246000fd5b611ff782611dae565b810181811067ffffffffffffffff8211171561201657612015611fbf565b5b80604052505050565b6000612029611e1a565b90506120358282611fee565b919050565b600067ffffffffffffffff82111561205557612054611fbf565b5b61205e82611dae565b9050602081019050919050565b82818337600083830152505050565b600061208d6120888461203a565b61201f565b9050828152602081018484840111156120a9576120a8611fba565b5b6120b484828561206b565b509392505050565b600082601f8301126120d1576120d0611fb5565b5b81356120e184826020860161207a565b91505092915050565b6000806000806080858703121561210457612103611e24565b5b600061211287828801611e77565b945050602061212387828801611ead565b935050604061213487828801611ead565b925050606085013567ffffffffffffffff81111561215557612154611e29565b5b612161878288016120bc565b91505092959194509250565b61217681611e4e565b82525050565b60006060820190506121916000830186611f8b565b61219e6020830185611f8b565b6121ab604083018461216d565b949350505050565b600060ff82169050919050565b6121c9816121b3565b82525050565b60006020820190506121e460008301846121c0565b92915050565b6000819050919050565b600061220f61220a61220584611e2e565b6121ea565b611e2e565b9050919050565b6000612221826121f4565b9050919050565b600061223382612216565b9050919050565b61224381612228565b82525050565b600060208201905061225e600083018461223a565b92915050565b60006020828403121561227a57612279611e24565b5b600061228884828501611e77565b91505092915050565b600081519050919050565b600082825260208201905092915050565b6000819050602082019050919050565b6122c681611e8c565b82525050565b6122d581611e4e565b82525050565b6060820160008201516122f160008501826122bd565b50602082015161230460208501826122bd565b50604082015161231760408501826122cc565b50505050565b600061232983836122db565b60608301905092915050565b6000602082019050919050565b600061234d82612291565b612357818561229c565b9350612362836122ad565b8060005b8381101561239357815161237a888261231d565b975061238583612335565b925050600181019050612366565b5085935050505092915050565b600060208201905081810360008301526123ba8184612342565b905092915050565b6000806000606084860312156123db576123da611e24565b5b60006123e986828701611e77565b93505060206123fa86828701611ead565b925050604061240b86828701611e77565b9150509250925092565b6000806040838503121561242c5761242b611e24565b5b600061243a85828601611e77565b925050602061244b85828601611e77565b9150509250929050565b6000806000806080858703121561246f5761246e611e24565b5b600061247d87828801611e77565b945050602061248e87828801611e77565b935050604061249f87828801611ead565b92505060606124b087828801611ead565b91505092959194509250565b7f4e487b7100000000000000000000000000000000000000000000000000000000600052602260045260246000fd5b6000600282049050600182168061250357607f821691505b602082108103612516576125156124bc565b5b50919050565b6000602082019050612531600083018461216d565b92915050565b7f4e487b7100000000000000000000000000000000000000000000000000000000600052603260045260246000fd5b7f56616c75652069732077726f6e67000000000000000000000000000000000000600082015250565b600061259c600e83611d73565b91506125a782612566565b602082019050919050565b600060208201905081810360008301526125cb8161258f565b9050919050565b7f4e487b7100000000000000000000000000000000000000000000000000000000600052601160045260246000fd5b600061260c82611e8c565b915061261783611e8c565b925082820390508181111561262f5761262e6125d2565b5b92915050565b600081519050919050565b600082825260208201905092915050565b600061265c82612635565b6126668185612640565b9350612676818560208601611d84565b61267f81611dae565b840191505092915050565b600060608201905061269f600083018661216d565b6126ac6020830185611f8b565b81810360408301526126be8184612651565b9050949350505050565b600081905092915050565b60006126de82612635565b6126e881856126c8565b93506126f8818560208601611d84565b80840191505092915050565b600061271082846126d3565b915081905092915050565b7f43616c6c20746f20636f6e646974696f6e20636f6e7472616374206661696c6560008201527f6400000000000000000000000000000000000000000000000000000000000000602082015250565b6000612777602183611d73565b91506127828261271b565b604082019050919050565b600060208201905081810360008301526127a68161276a565b9050919050565b6127b681611f15565b81146127c157600080fd5b50565b6000815190506127d3816127ad565b92915050565b6000602082840312156127ef576127ee611e24565b5b60006127fd848285016127c4565b91505092915050565b7f436f6e646974696f6e206e6f7420736174697366696564000000000000000000600082015250565b600061283c601783611d73565b915061284782612806565b602082019050919050565b6000602082019050818103600083015261286b8161282f565b9050919050565b6000604082019050612887600083018561216d565b6128946020830184611f8b565b9392505050565b60006060820190506128b0600083018661216d565b6128bd602083018561216d565b6128ca6040830184611f8b565b949350505050565b60006060820190506128e7600083018661216d565b6128f46020830185611f8b565b6129016040830184611f8b565b949350505050565b600061291482611e8c565b915061291f83611e8c565b9250828201905080821115612937576129366125d2565b5b92915050565b600061294882611e8c565b91507fffffffffffffffffffffffffffffffffffffffffffffffffffffffffffffffff820361297a576129796125d2565b5b60018201905091905056fea26469706673582212200cfbb9a0740893924ba155ac32e551ae2ebffe03790f46830319c0ede4d3a38364736f6c63430008140033",
  "linkReferences": {},
  "deployedLinkReferences": {}
}