{
  "_format": "hh-sol-artifact-1",
  "contractName": "ExampleAttester",
  "sourceName": "src/ExampleAttester.sol",
  "abi": [
    {
      "inputs": [],
      "name": "InvalidEAS",
      "type": "error"
    },
    {
      "inputs": [
        {
          "internalType": "bytes32",
          "name": "schema",
          "type": "bytes32"
        },
        {
          "internalType": "address",
          "name": "_recipient",
          "type": "address"
        },
        {
          "internalType": "uint256",
          "name": "amount",
          "type": "uint256"
        },
        {
          "internalType": "bool",
          "name": "_isdeveloper",
          "type": "bool"
        }
      ],
      "name": "attestUint",
      "outputs": [
        {
          "internalType": "bytes32",
          "name": "",
          "type": "bytes32"
        }
      ],
      "stateMutability": "nonpayable",
      "type": "function"
    },
    {
      "inputs": [
        {
          "internalType": "bytes32",
          "name": "attestUid",
          "type": "bytes32"
        }
      ],
      "name": "getRecepient",
      "outputs": [
        {
          "internalType": "address",
          "name": "",
          "type": "address"
        }
      ],
      "stateMutability": "view",
      "type": "function"
    }
  ],
  "bytecode": "0x608060405273c2679fbd37d54388ce493f1db75320d236e1815e6000806101000a81548173ffffffffffffffffffffffffffffffffffffffff021916908373ffffffffffffffffffffffffffffffffffffffff16021790555034801561006457600080fd5b506109f3806100746000396000f3fe608060405234801561001057600080fd5b50600436106100365760003560e01c8063b46489511461003b578063b5b8719c1461006b575b600080fd5b610055600480360381019061005091906102c8565b61009b565b6040516100629190610336565b60405180910390f35b610085600480360381019061008091906103eb565b61014c565b6040516100929190610461565b60405180910390f35b60008060008054906101000a900473ffffffffffffffffffffffffffffffffffffffff1673ffffffffffffffffffffffffffffffffffffffff1663a3112a64846040518263ffffffff1660e01b81526004016100f79190610461565b600060405180830381865afa158015610114573d6000803e3d6000fd5b505050506040513d6000823e3d601f19601f8201168201806040525081019061013d9190610778565b90508060c00151915050919050565b60008060009054906101000a900473ffffffffffffffffffffffffffffffffffffffff1673ffffffffffffffffffffffffffffffffffffffff1663f17325e760405180604001604052808881526020016040518060c001604052808973ffffffffffffffffffffffffffffffffffffffff168152602001600067ffffffffffffffff1681526020016001151581526020016000801b815260200188886040516020016101f99291906107df565b604051602081830303815290604052815260200160008152508152506040518263ffffffff1660e01b8152600401610231919061096e565b6020604051808303816000875af1158015610250573d6000803e3d6000fd5b505050506040513d601f19601f820116820180604052508101906102749190610990565b9050949350505050565b6000604051905090565b600080fd5b600080fd5b6000819050919050565b6102a581610292565b81146102b057600080fd5b50565b6000813590506102c28161029c565b92915050565b6000602082840312156102de576102dd610288565b5b60006102ec848285016102b3565b91505092915050565b600073ffffffffffffffffffffffffffffffffffffffff82169050919050565b6000610320826102f5565b9050919050565b61033081610315565b82525050565b600060208201905061034b6000830184610327565b92915050565b61035a81610315565b811461036557600080fd5b50565b60008135905061037781610351565b92915050565b6000819050919050565b6103908161037d565b811461039b57600080fd5b50565b6000813590506103ad81610387565b92915050565b60008115159050919050565b6103c8816103b3565b81146103d357600080fd5b50565b6000813590506103e5816103bf565b92915050565b6000806000806080858703121561040557610404610288565b5b6000610413878288016102b3565b945050602061042487828801610368565b93505060406104358782880161039e565b9250506060610446878288016103d6565b91505092959194509250565b61045b81610292565b82525050565b60006020820190506104766000830184610452565b92915050565b600080fd5b6000601f19601f8301169050919050565b7f4e487b7100000000000000000000000000000000000000000000000000000000600052604160045260246000fd5b6104ca82610481565b810181811067ffffffffffffffff821117156104e9576104e8610492565b5b80604052505050565b60006104fc61027e565b905061050882826104c1565b919050565b600080fd5b6000815190506105218161029c565b92915050565b600067ffffffffffffffff82169050919050565b61054481610527565b811461054f57600080fd5b50565b6000815190506105618161053b565b92915050565b60008151905061057681610351565b92915050565b60008151905061058b816103bf565b92915050565b600080fd5b600080fd5b600067ffffffffffffffff8211156105b6576105b5610492565b5b6105bf82610481565b9050602081019050919050565b60005b838110156105ea5780820151818401526020810190506105cf565b60008484015250505050565b60006106096106048461059b565b6104f2565b90508281526020810184848401111561062557610624610596565b5b6106308482856105cc565b509392505050565b600082601f83011261064d5761064c610591565b5b815161065d8482602086016105f6565b91505092915050565b6000610140828403121561067d5761067c61047c565b5b6106886101406104f2565b9050600061069884828501610512565b60008301525060206106ac84828501610512565b60208301525060406106c084828501610552565b60408301525060606106d484828501610552565b60608301525060806106e884828501610552565b60808301525060a06106fc84828501610512565b60a08301525060c061071084828501610567565b60c08301525060e061072484828501610567565b60e0830152506101006107398482850161057c565b6101008301525061012082015167ffffffffffffffff81111561075f5761075e61050d565b5b61076b84828501610638565b6101208301525092915050565b60006020828403121561078e5761078d610288565b5b600082015167ffffffffffffffff8111156107ac576107ab61028d565b5b6107b884828501610666565b91505092915050565b6107ca8161037d565b82525050565b6107d9816103b3565b82525050565b60006040820190506107f460008301856107c1565b61080160208301846107d0565b9392505050565b61081181610292565b82525050565b61082081610315565b82525050565b61082f81610527565b82525050565b61083e816103b3565b82525050565b600081519050919050565b600082825260208201905092915050565b600061086b82610844565b610875818561084f565b93506108858185602086016105cc565b61088e81610481565b840191505092915050565b6108a28161037d565b82525050565b600060c0830160008301516108c06000860182610817565b5060208301516108d36020860182610826565b5060408301516108e66040860182610835565b5060608301516108f96060860182610808565b50608083015184820360808601526109118282610860565b91505060a083015161092660a0860182610899565b508091505092915050565b60006040830160008301516109496000860182610808565b506020830151848203602086015261096182826108a8565b9150508091505092915050565b600060208201905081810360008301526109888184610931565b905092915050565b6000602082840312156109a6576109a5610288565b5b60006109b484828501610512565b9150509291505056fea26469706673582212207f7b30fe4de5919e7007aa57fb8438f9e9046faa534357ded51313614943177b64736f6c63430008140033",
  "linkReferences": {},
  "deployedLinkReferences": {}
}