{
  "_format": "hh-sol-artifact-1",
  "contractName": "Condition",
  "sourceName": "src/Condition.sol",
  "abi": [
    {
      "inputs": [
        {
          "internalType": "bytes",
          "name": "data",
          "type": "bytes"
        }
      ],
      "name": "runCondition",
      "outputs": [
        {
          "internalType": "bool",
          "name": "",
          "type": "bool"
        }
      ],
      "stateMutability": "view",
      "type": "function"
    }
  ],
  "bytecode": "0x608060405273c2679fbd37d54388ce493f1db75320d236e1815e6000806101000a81548173ffffffffffffffffffffffffffffffffffffffff021916908373ffffffffffffffffffffffffffffffffffffffff16021790555034801561006457600080fd5b50610960806100746000396000f3fe608060405234801561001057600080fd5b506004361061002b5760003560e01c8063b0c45ec514610030575b600080fd5b61004a6004803603810190610045919061047b565b610060565b60405161005791906104df565b60405180910390f35b6000806000808480602001905181019061007a91906105c4565b925092509250733c44cdddb6a900fa2b585dd299e03d12fa4293bc73ffffffffffffffffffffffffffffffffffffffff168373ffffffffffffffffffffffffffffffffffffffff16146100cc57600080fd5b60648211156100da57600080fd5b7390f79bf6eb2c4f870365e785982e1f101e93b90673ffffffffffffffffffffffffffffffffffffffff1661010e826101cb565b60e0015173ffffffffffffffffffffffffffffffffffffffff161461013257600080fd5b8273ffffffffffffffffffffffffffffffffffffffff16610152826101cb565b60c0015173ffffffffffffffffffffffffffffffffffffffff161461017657600080fd5b600080610182836101cb565b610120015180602001905181019061019a9190610643565b9150915060468210156101ac57600080fd5b60011515811515146101bd57600080fd5b600195505050505050919050565b6101d3610279565b60008054906101000a900473ffffffffffffffffffffffffffffffffffffffff1673ffffffffffffffffffffffffffffffffffffffff1663a3112a64836040518263ffffffff1660e01b815260040161022c9190610692565b600060405180830381865afa158015610249573d6000803e3d6000fd5b505050506040513d6000823e3d601f19601f8201168201806040525081019061027291906108e1565b9050919050565b6040518061014001604052806000801916815260200160008019168152602001600067ffffffffffffffff168152602001600067ffffffffffffffff168152602001600067ffffffffffffffff16815260200160008019168152602001600073ffffffffffffffffffffffffffffffffffffffff168152602001600073ffffffffffffffffffffffffffffffffffffffff168152602001600015158152602001606081525090565b6000604051905090565b600080fd5b600080fd5b600080fd5b600080fd5b6000601f19601f8301169050919050565b7f4e487b7100000000000000000000000000000000000000000000000000000000600052604160045260246000fd5b6103888261033f565b810181811067ffffffffffffffff821117156103a7576103a6610350565b5b80604052505050565b60006103ba610321565b90506103c6828261037f565b919050565b600067ffffffffffffffff8211156103e6576103e5610350565b5b6103ef8261033f565b9050602081019050919050565b82818337600083830152505050565b600061041e610419846103cb565b6103b0565b90508281526020810184848401111561043a5761043961033a565b5b6104458482856103fc565b509392505050565b600082601f83011261046257610461610335565b5b813561047284826020860161040b565b91505092915050565b6000602082840312156104915761049061032b565b5b600082013567ffffffffffffffff8111156104af576104ae610330565b5b6104bb8482850161044d565b91505092915050565b60008115159050919050565b6104d9816104c4565b82525050565b60006020820190506104f460008301846104d0565b92915050565b600073ffffffffffffffffffffffffffffffffffffffff82169050919050565b6000610525826104fa565b9050919050565b6105358161051a565b811461054057600080fd5b50565b6000815190506105528161052c565b92915050565b6000819050919050565b61056b81610558565b811461057657600080fd5b50565b60008151905061058881610562565b92915050565b6000819050919050565b6105a18161058e565b81146105ac57600080fd5b50565b6000815190506105be81610598565b92915050565b6000806000606084860312156105dd576105dc61032b565b5b60006105eb86828701610543565b93505060206105fc86828701610579565b925050604061060d868287016105af565b9150509250925092565b610620816104c4565b811461062b57600080fd5b50565b60008151905061063d81610617565b92915050565b6000806040838503121561065a5761065961032b565b5b600061066885828601610579565b92505060206106798582860161062e565b9150509250929050565b61068c8161058e565b82525050565b60006020820190506106a76000830184610683565b92915050565b600080fd5b600080fd5b600067ffffffffffffffff82169050919050565b6106d4816106b7565b81146106df57600080fd5b50565b6000815190506106f1816106cb565b92915050565b6000610702826104fa565b9050919050565b610712816106f7565b811461071d57600080fd5b50565b60008151905061072f81610709565b92915050565b60005b83811015610753578082015181840152602081019050610738565b60008484015250505050565b600061077261076d846103cb565b6103b0565b90508281526020810184848401111561078e5761078d61033a565b5b610799848285610735565b509392505050565b600082601f8301126107b6576107b5610335565b5b81516107c684826020860161075f565b91505092915050565b600061014082840312156107e6576107e56106ad565b5b6107f16101406103b0565b90506000610801848285016105af565b6000830152506020610815848285016105af565b6020830152506040610829848285016106e2565b604083015250606061083d848285016106e2565b6060830152506080610851848285016106e2565b60808301525060a0610865848285016105af565b60a08301525060c061087984828501610720565b60c08301525060e061088d84828501610720565b60e0830152506101006108a28482850161062e565b6101008301525061012082015167ffffffffffffffff8111156108c8576108c76106b2565b5b6108d4848285016107a1565b6101208301525092915050565b6000602082840312156108f7576108f661032b565b5b600082015167ffffffffffffffff81111561091557610914610330565b5b610921848285016107cf565b9150509291505056fea264697066735822122016f869e10b215f902aaee6f9e2259cb100dbb7be7d5b5cc32241f678ddd7bcdf64736f6c63430008140033",
  "linkReferences": {},
  "deployedLinkReferences": {}
}