{
  "_format": "hh-sol-artifact-1",
  "contractName": "FacetA",
  "sourceName": "src/Condition/facets/FacetA.sol",
  "abi": [
    {
      "inputs": [
        {
          "internalType": "address",
          "name": "_to",
          "type": "address"
        },
        {
          "internalType": "uint256",
          "name": "amount",
          "type": "uint256"
        },
        {
          "internalType": "bytes",
          "name": "data",
          "type": "bytes"
        }
      ],
      "name": "runCondition",
      "outputs": [
        {
          "internalType": "bool",
          "name": "",
          "type": "bool"
        }
      ],
      "stateMutability": "view",
      "type": "function"
    }
  ],
  "bytecode": "0x608060405234801561001057600080fd5b50610390806100206000396000f3fe608060405234801561001057600080fd5b506004361061002b5760003560e01c806342495c1414610030575b600080fd5b61004a600480360381019061004591906102b5565b610060565b604051610057919061033f565b60405180910390f35b6000733c44cdddb6a900fa2b585dd299e03d12fa4293bc73ffffffffffffffffffffffffffffffffffffffff168473ffffffffffffffffffffffffffffffffffffffff16146100ae57600080fd5b60648311156100bc57600080fd5b600190509392505050565b6000604051905090565b600080fd5b600080fd5b600073ffffffffffffffffffffffffffffffffffffffff82169050919050565b6000610106826100db565b9050919050565b610116816100fb565b811461012157600080fd5b50565b6000813590506101338161010d565b92915050565b6000819050919050565b61014c81610139565b811461015757600080fd5b50565b60008135905061016981610143565b92915050565b600080fd5b600080fd5b6000601f19601f8301169050919050565b7f4e487b7100000000000000000000000000000000000000000000000000000000600052604160045260246000fd5b6101c282610179565b810181811067ffffffffffffffff821117156101e1576101e061018a565b5b80604052505050565b60006101f46100c7565b905061020082826101b9565b919050565b600067ffffffffffffffff8211156102205761021f61018a565b5b61022982610179565b9050602081019050919050565b82818337600083830152505050565b600061025861025384610205565b6101ea565b90508281526020810184848401111561027457610273610174565b5b61027f848285610236565b509392505050565b600082601f83011261029c5761029b61016f565b5b81356102ac848260208601610245565b91505092915050565b6000806000606084860312156102ce576102cd6100d1565b5b60006102dc86828701610124565b93505060206102ed8682870161015a565b925050604084013567ffffffffffffffff81111561030e5761030d6100d6565b5b61031a86828701610287565b9150509250925092565b60008115159050919050565b61033981610324565b82525050565b60006020820190506103546000830184610330565b9291505056fea26469706673582212204dc11a7f789a88a3aa95930c0516c89e3e29217db07cdc949989cae4885f9bf564736f6c63430008140033",
  "linkReferences": {},
  "deployedLinkReferences": {}
}