{
  "_format": "hh-sol-artifact-1",
  "contractName": "MyToken",
  "sourceName": "src/MyToken.sol",
  "abi": [
    {
      "inputs": [],
      "stateMutability": "nonpayable",
      "type": "constructor"
    },
    {
      "inputs": [],
      "name": "ECDSAInvalidSignature",
      "type": "error"
    },
    {
      "inputs": [
        {
          "internalType": "uint256",
          "name": "length",
          "type": "uint256"
        }
      ],
      "name": "ECDSAInvalidSignatureLength",
      "type": "error"
    },
    {
      "inputs": [
        {
          "internalType": "bytes32",
          "name": "s",
          "type": "bytes32"
        }
      ],
      "name": "ECDSAInvalidSignatureS",
      "type": "error"
    },
    {
      "inputs": [
        {
          "internalType": "address",
          "name": "spender",
          "type": "address"
        },
        {
          "internalType": "uint256",
          "name": "allowance",
          "type": "uint256"
        },
        {
          "internalType": "uint256",
          "name": "needed",
          "type": "uint256"
        }
      ],
      "name": "ERC20InsufficientAllowance",
      "type": "error"
    },
    {
      "inputs": [
        {
          "internalType": "address",
          "name": "sender",
          "type": "address"
        },
        {
          "internalType": "uint256",
          "name": "balance",
          "type": "uint256"
        },
        {
          "internalType": "uint256",
          "name": "needed",
          "type": "uint256"
        }
      ],
      "name": "ERC20InsufficientBalance",
      "type": "error"
    },
    {
      "inputs": [
        {
          "internalType": "address",
          "name": "approver",
          "type": "address"
        }
      ],
      "name": "ERC20InvalidApprover",
      "type": "error"
    },
    {
      "inputs": [
        {
          "internalType": "address",
          "name": "receiver",
          "type": "address"
        }
      ],
      "name": "ERC20InvalidReceiver",
      "type": "error"
    },
    {
      "inputs": [
        {
          "internalType": "address",
          "name": "sender",
          "type": "address"
        }
      ],
      "name": "ERC20InvalidSender",
      "type": "error"
    },
    {
      "inputs": [
        {
          "internalType": "address",
          "name": "spender",
          "type": "address"
        }
      ],
      "name": "ERC20InvalidSpender",
      "type": "error"
    },
    {
      "inputs": [
        {
          "internalType": "uint256",
          "name": "deadline",
          "type": "uint256"
        }
      ],
      "name": "ERC2612ExpiredSignature",
      "type": "error"
    },
    {
      "inputs": [
        {
          "internalType": "address",
          "name": "signer",
          "type": "address"
        },
        {
          "internalType": "address",
          "name": "owner",
          "type": "address"
        }
      ],
      "name": "ERC2612InvalidSigner",
      "type": "error"
    },
    {
      "inputs": [
        {
          "internalType": "address",
          "name": "account",
          "type": "address"
        },
        {
          "internalType": "uint256",
          "name": "currentNonce",
          "type": "uint256"
        }
      ],
      "name": "InvalidAccountNonce",
      "type": "error"
    },
    {
      "inputs": [],
      "name": "InvalidShortString",
      "type": "error"
    },
    {
      "inputs": [
        {
          "internalType": "address",
          "name": "owner",
          "type": "address"
        }
      ],
      "name": "OwnableInvalidOwner",
      "type": "error"
    },
    {
      "inputs": [
        {
          "internalType": "address",
          "name": "account",
          "type": "address"
        }
      ],
      "name": "OwnableUnauthorizedAccount",
      "type": "error"
    },
    {
      "inputs": [
        {
          "internalType": "string",
          "name": "str",
          "type": "string"
        }
      ],
      "name": "StringTooLong",
      "type": "error"
    },
    {
      "anonymous": false,
      "inputs": [
        {
          "indexed": true,
          "internalType": "address",
          "name": "owner",
          "type": "address"
        },
        {
          "indexed": true,
          "internalType": "address",
          "name": "spender",
          "type": "address"
        },
        {
          "indexed": false,
          "internalType": "uint256",
          "name": "value",
          "type": "uint256"
        }
      ],
      "name": "Approval",
      "type": "event"
    },
    {
      "anonymous": false,
      "inputs": [],
      "name": "EIP712DomainChanged",
      "type": "event"
    },
    {
      "anonymous": false,
      "inputs": [
        {
          "indexed": true,
          "internalType": "address",
          "name": "previousOwner",
          "type": "address"
        },
        {
          "indexed": true,
          "internalType": "address",
          "name": "newOwner",
          "type": "address"
        }
      ],
      "name": "OwnershipTransferred",
      "type": "event"
    },
    {
      "anonymous": false,
      "inputs": [
        {
          "indexed": true,
          "internalType": "address",
          "name": "from",
          "type": "address"
        },
        {
          "indexed": true,
          "internalType": "address",
          "name": "to",
          "type": "address"
        },
        {
          "indexed": false,
          "internalType": "uint256",
          "name": "value",
          "type": "uint256"
        }
      ],
      "name": "Transfer",
      "type": "event"
    },
    {
      "inputs": [],
      "name": "DOMAIN_SEPARATOR",
      "outputs": [
        {
          "internalType": "bytes32",
          "name": "",
          "type": "bytes32"
        }
      ],
      "stateMutability": "view",
      "type": "function"
    },
    {
      "inputs": [
        {
          "internalType": "address",
          "name": "owner",
          "type": "address"
        },
        {
          "internalType": "address",
          "name": "spender",
          "type": "address"
        }
      ],
      "name": "allowance",
      "outputs": [
        {
          "internalType": "uint256",
          "name": "",
          "type": "uint256"
        }
      ],
      "stateMutability": "view",
      "type": "function"
    },
    {
      "inputs": [
        {
          "internalType": "address",
          "name": "spender",
          "type": "address"
        },
        {
          "internalType": "uint256",
          "name": "value",
          "type": "uint256"
        }
      ],
      "name": "approve",
      "outputs": [
        {
          "internalType": "bool",
          "name": "",
          "type": "bool"
        }
      ],
      "stateMutability": "nonpayable",
      "type": "function"
    },
    {
      "inputs": [
        {
          "internalType": "address",
          "name": "account",
          "type": "address"
        }
      ],
      "name": "balanceOf",
      "outputs": [
        {
          "internalType": "uint256",
          "name": "",
          "type": "uint256"
        }
      ],
      "stateMutability": "view",
      "type": "function"
    },
    {
      "inputs": [],
      "name": "decimals",
      "outputs": [
        {
          "internalType": "uint8",
          "name": "",
          "type": "uint8"
        }
      ],
      "stateMutability": "view",
      "type": "function"
    },
    {
      "inputs": [],
      "name": "eip712Domain",
      "outputs": [
        {
          "internalType": "bytes1",
          "name": "fields",
          "type": "bytes1"
        },
        {
          "internalType": "string",
          "name": "name",
          "type": "string"
        },
        {
          "internalType": "string",
          "name": "version",
          "type": "string"
        },
        {
          "internalType": "uint256",
          "name": "chainId",
          "type": "uint256"
        },
        {
          "internalType": "address",
          "name": "verifyingContract",
          "type": "address"
        },
        {
          "internalType": "bytes32",
          "name": "salt",
          "type": "bytes32"
        },
        {
          "internalType": "uint256[]",
          "name": "extensions",
          "type": "uint256[]"
        }
      ],
      "stateMutability": "view",
      "type": "function"
    },
    {
      "inputs": [
        {
          "internalType": "uint256",
          "name": "amount",
          "type": "uint256"
        }
      ],
      "name": "mint",
      "outputs": [],
      "stateMutability": "nonpayable",
      "type": "function"
    },
    {
      "inputs": [],
      "name": "name",
      "outputs": [
        {
          "internalType": "string",
          "name": "",
          "type": "string"
        }
      ],
      "stateMutability": "view",
      "type": "function"
    },
    {
      "inputs": [
        {
          "internalType": "address",
          "name": "owner",
          "type": "address"
        }
      ],
      "name": "nonces",
      "outputs": [
        {
          "internalType": "uint256",
          "name": "",
          "type": "uint256"
        }
      ],
      "stateMutability": "view",
      "type": "function"
    },
    {
      "inputs": [],
      "name": "owner",
      "outputs": [
        {
          "internalType": "address",
          "name": "",
          "type": "address"
        }
      ],
      "stateMutability": "view",
      "type": "function"
    },
    {
      "inputs": [
        {
          "internalType": "address",
          "name": "owner",
          "type": "address"
        },
        {
          "internalType": "address",
          "name": "spender",
          "type": "address"
        },
        {
          "internalType": "uint256",
          "name": "value",
          "type": "uint256"
        },
        {
          "internalType": "uint256",
          "name": "deadline",
          "type": "uint256"
        },
        {
          "internalType": "uint8",
          "name": "v",
          "type": "uint8"
        },
        {
          "internalType": "bytes32",
          "name": "r",
          "type": "bytes32"
        },
        {
          "internalType": "bytes32",
          "name": "s",
          "type": "bytes32"
        }
      ],
      "name": "permit",
      "outputs": [],
      "stateMutability": "nonpayable",
      "type": "function"
    },
    {
      "inputs": [],
      "name": "renounceOwnership",
      "outputs": [],
      "stateMutability": "nonpayable",
      "type": "function"
    },
    {
      "inputs": [],
      "name": "symbol",
      "outputs": [
        {
          "internalType": "string",
          "name": "",
          "type": "string"
        }
      ],
      "stateMutability": "view",
      "type": "function"
    },
    {
      "inputs": [],
      "name": "totalSupply",
      "outputs": [
        {
          "internalType": "uint256",
          "name": "",
          "type": "uint256"
        }
      ],
      "stateMutability": "view",
      "type": "function"
    },
    {
      "inputs": [
        {
          "internalType": "address",
          "name": "to",
          "type": "address"
        },
        {
          "internalType": "uint256",
          "name": "value",
          "type": "uint256"
        }
      ],
      "name": "transfer",
      "outputs": [
        {
          "internalType": "bool",
          "name": "",
          "type": "bool"
        }
      ],
      "stateMutability": "nonpayable",
      "type": "function"
    },
    {
      "inputs": [
        {
          "internalType": "address",
          "name": "from",
          "type": "address"
        },
        {
          "internalType": "address",
          "name": "to",
          "type": "address"
        },
        {
          "internalType": "uint256",
          "name": "value",
          "type": "uint256"
        }
      ],
      "name": "transferFrom",
      "outputs": [
        {
          "internalType": "bool",
          "name": "",
          "type": "bool"
        }
      ],
      "stateMutability": "nonpayable",
      "type": "function"
    },
    {
      "inputs": [
        {
          "internalType": "address",
          "name": "newOwner",
          "type": "address"
        }
      ],
      "name": "transferOwnership",
      "outputs": [],
      "stateMutability": "nonpayable",
      "type": "function"
    }
  ],
  "bytecode": "0x6101606040523480156200001257600080fd5b506040518060400160405280600781526020017f4d79546f6b656e00000000000000000000000000000000000000000000000000815250806040518060400160405280600181526020017f3100000000000000000000000000000000000000000000000000000000000000815250336040518060400160405280600781526020017f4d79546f6b656e000000000000000000000000000000000000000000000000008152506040518060400160405280600381526020017f4d544b00000000000000000000000000000000000000000000000000000000008152508160039081620000fe9190620006bd565b508060049081620001109190620006bd565b505050600073ffffffffffffffffffffffffffffffffffffffff168173ffffffffffffffffffffffffffffffffffffffff1603620001885760006040517f1e4fbdf70000000000000000000000000000000000000000000000000000000081526004016200017f9190620007e9565b60405180910390fd5b62000199816200025160201b60201c565b50620001b06006836200031760201b90919060201c565b6101208181525050620001ce6007826200031760201b90919060201c565b6101408181525050818051906020012060e08181525050808051906020012061010081815250504660a081815250506200020d6200036f60201b60201c565b608081815250503073ffffffffffffffffffffffffffffffffffffffff1660c08173ffffffffffffffffffffffffffffffffffffffff1681525050505050620009e4565b6000600560009054906101000a900473ffffffffffffffffffffffffffffffffffffffff16905081600560006101000a81548173ffffffffffffffffffffffffffffffffffffffff021916908373ffffffffffffffffffffffffffffffffffffffff1602179055508173ffffffffffffffffffffffffffffffffffffffff168173ffffffffffffffffffffffffffffffffffffffff167f8be0079c531659141344cd1fd0a4f28419497f9722a3daafe3b4186f6b6457e060405160405180910390a35050565b60006020835110156200033d576200033583620003cc60201b60201c565b905062000369565b826200034f836200043960201b60201c565b6000019081620003609190620006bd565b5060ff60001b90505b92915050565b60007f8b73c3c69bb8fe3d512ecc4cf759cc79239f7b179b0ffacaa9a75d522b39400f60e051610100514630604051602001620003b195949392919062000832565b60405160208183030381529060405280519060200120905090565b600080829050601f815111156200041c57826040517f305a27a90000000000000000000000000000000000000000000000000000000081526004016200041391906200091e565b60405180910390fd5b8051816200042a9062000974565b60001c1760001b915050919050565b6000819050919050565b600081519050919050565b7f4e487b7100000000000000000000000000000000000000000000000000000000600052604160045260246000fd5b7f4e487b7100000000000000000000000000000000000000000000000000000000600052602260045260246000fd5b60006002820490506001821680620004c557607f821691505b602082108103620004db57620004da6200047d565b5b50919050565b60008190508160005260206000209050919050565b60006020601f8301049050919050565b600082821b905092915050565b600060088302620005457fffffffffffffffffffffffffffffffffffffffffffffffffffffffffffffffff8262000506565b62000551868362000506565b95508019841693508086168417925050509392505050565b6000819050919050565b6000819050919050565b60006200059e62000598620005928462000569565b62000573565b62000569565b9050919050565b6000819050919050565b620005ba836200057d565b620005d2620005c982620005a5565b84845462000513565b825550505050565b600090565b620005e9620005da565b620005f6818484620005af565b505050565b5b818110156200061e5762000612600082620005df565b600181019050620005fc565b5050565b601f8211156200066d576200063781620004e1565b6200064284620004f6565b8101602085101562000652578190505b6200066a6200066185620004f6565b830182620005fb565b50505b505050565b600082821c905092915050565b6000620006926000198460080262000672565b1980831691505092915050565b6000620006ad83836200067f565b9150826002028217905092915050565b620006c88262000443565b67ffffffffffffffff811115620006e457620006e36200044e565b5b620006f08254620004ac565b620006fd82828562000622565b600060209050601f83116001811462000735576000841562000720578287015190505b6200072c85826200069f565b8655506200079c565b601f1984166200074586620004e1565b60005b828110156200076f5784890151825560018201915060208501945060208101905062000748565b868310156200078f57848901516200078b601f8916826200067f565b8355505b6001600288020188555050505b505050505050565b600073ffffffffffffffffffffffffffffffffffffffff82169050919050565b6000620007d182620007a4565b9050919050565b620007e381620007c4565b82525050565b6000602082019050620008006000830184620007d8565b92915050565b6000819050919050565b6200081b8162000806565b82525050565b6200082c8162000569565b82525050565b600060a08201905062000849600083018862000810565b62000858602083018762000810565b62000867604083018662000810565b62000876606083018562000821565b620008856080830184620007d8565b9695505050505050565b600082825260208201905092915050565b60005b83811015620008c0578082015181840152602081019050620008a3565b60008484015250505050565b6000601f19601f8301169050919050565b6000620008ea8262000443565b620008f681856200088f565b935062000908818560208601620008a0565b6200091381620008cc565b840191505092915050565b600060208201905081810360008301526200093a8184620008dd565b905092915050565b600081519050919050565b6000819050602082019050919050565b60006200096b825162000806565b80915050919050565b6000620009818262000942565b826200098d846200094d565b90506200099a816200095d565b92506020821015620009dd57620009d87fffffffffffffffffffffffffffffffffffffffffffffffffffffffffffffffff8360200360080262000506565b831692505b5050919050565b60805160a05160c05160e051610100516101205161014051611f8062000a3f6000396000610cf801526000610cbd0152600061128f0152600061126e01526000610a6b01526000610ac101526000610aea0152611f806000f3fe608060405234801561001057600080fd5b506004361061010b5760003560e01c80637ecebe00116100a2578063a0712d6811610071578063a0712d68146102b2578063a9059cbb146102ce578063d505accf146102fe578063dd62ed3e1461031a578063f2fde38b1461034a5761010b565b80637ecebe001461022257806384b0196e146102525780638da5cb5b1461027657806395d89b41146102945761010b565b8063313ce567116100de578063313ce567146101ac5780633644e515146101ca57806370a08231146101e8578063715018a6146102185761010b565b806306fdde0314610110578063095ea7b31461012e57806318160ddd1461015e57806323b872dd1461017c575b600080fd5b610118610366565b604051610125919061177c565b60405180910390f35b61014860048036038101906101439190611837565b6103f8565b6040516101559190611892565b60405180910390f35b61016661041b565b60405161017391906118bc565b60405180910390f35b610196600480360381019061019191906118d7565b610425565b6040516101a39190611892565b60405180910390f35b6101b4610454565b6040516101c19190611946565b60405180910390f35b6101d261045d565b6040516101df919061197a565b60405180910390f35b61020260048036038101906101fd9190611995565b61046c565b60405161020f91906118bc565b60405180910390f35b6102206104b4565b005b61023c60048036038101906102379190611995565b6104c8565b60405161024991906118bc565b60405180910390f35b61025a6104da565b60405161026d9796959493929190611aca565b60405180910390f35b61027e610584565b60405161028b9190611b4e565b60405180910390f35b61029c6105ae565b6040516102a9919061177c565b60405180910390f35b6102cc60048036038101906102c79190611b69565b610640565b005b6102e860048036038101906102e39190611837565b61064d565b6040516102f59190611892565b60405180910390f35b61031860048036038101906103139190611bee565b610670565b005b610334600480360381019061032f9190611c90565b6107b8565b60405161034191906118bc565b60405180910390f35b610364600480360381019061035f9190611995565b61083f565b005b60606003805461037590611cff565b80601f01602080910402602001604051908101604052809291908181526020018280546103a190611cff565b80156103ee5780601f106103c3576101008083540402835291602001916103ee565b820191906000526020600020905b8154815290600101906020018083116103d157829003601f168201915b5050505050905090565b6000806104036108c5565b90506104108185856108cd565b600191505092915050565b6000600254905090565b6000806104306108c5565b905061043d8582856108df565b610448858585610973565b60019150509392505050565b60006012905090565b6000610467610a67565b905090565b60008060008373ffffffffffffffffffffffffffffffffffffffff1673ffffffffffffffffffffffffffffffffffffffff168152602001908152602001600020549050919050565b6104bc610b1e565b6104c66000610ba5565b565b60006104d382610c6b565b9050919050565b6000606080600080600060606104ee610cb4565b6104f6610cef565b46306000801b600067ffffffffffffffff81111561051757610516611d30565b5b6040519080825280602002602001820160405280156105455781602001602082028036833780820191505090505b507f0f00000000000000000000000000000000000000000000000000000000000000959493929190965096509650965096509650965090919293949596565b6000600560009054906101000a900473ffffffffffffffffffffffffffffffffffffffff16905090565b6060600480546105bd90611cff565b80601f01602080910402602001604051908101604052809291908181526020018280546105e990611cff565b80156106365780601f1061060b57610100808354040283529160200191610636565b820191906000526020600020905b81548152906001019060200180831161061957829003601f168201915b5050505050905090565b61064a3382610d2a565b50565b6000806106586108c5565b9050610665818585610973565b600191505092915050565b834211156106b557836040517f627913020000000000000000000000000000000000000000000000000000000081526004016106ac91906118bc565b60405180910390fd5b60007f6e71edae12b1b97f4d1f60370fef10105fa2faae0126114a169c64845d6126c98888886106e48c610dac565b896040516020016106fa96959493929190611d5f565b604051602081830303815290604052805190602001209050600061071d82610e03565b9050600061072d82878787610e1d565b90508973ffffffffffffffffffffffffffffffffffffffff168173ffffffffffffffffffffffffffffffffffffffff16146107a157808a6040517f4b800e46000000000000000000000000000000000000000000000000000000008152600401610798929190611dc0565b60405180910390fd5b6107ac8a8a8a6108cd565b50505050505050505050565b6000600160008473ffffffffffffffffffffffffffffffffffffffff1673ffffffffffffffffffffffffffffffffffffffff16815260200190815260200160002060008373ffffffffffffffffffffffffffffffffffffffff1673ffffffffffffffffffffffffffffffffffffffff16815260200190815260200160002054905092915050565b610847610b1e565b600073ffffffffffffffffffffffffffffffffffffffff168173ffffffffffffffffffffffffffffffffffffffff16036108b95760006040517f1e4fbdf70000000000000000000000000000000000000000000000000000000081526004016108b09190611b4e565b60405180910390fd5b6108c281610ba5565b50565b600033905090565b6108da8383836001610e4d565b505050565b60006108eb84846107b8565b90507fffffffffffffffffffffffffffffffffffffffffffffffffffffffffffffffff811461096d578181101561095d578281836040517ffb8f41b200000000000000000000000000000000000000000000000000000000815260040161095493929190611de9565b60405180910390fd5b61096c84848484036000610e4d565b5b50505050565b600073ffffffffffffffffffffffffffffffffffffffff168373ffffffffffffffffffffffffffffffffffffffff16036109e55760006040517f96c6fd1e0000000000000000000000000000000000000000000000000000000081526004016109dc9190611b4e565b60405180910390fd5b600073ffffffffffffffffffffffffffffffffffffffff168273ffffffffffffffffffffffffffffffffffffffff1603610a575760006040517fec442f05000000000000000000000000000000000000000000000000000000008152600401610a4e9190611b4e565b60405180910390fd5b610a62838383611024565b505050565b60007f000000000000000000000000000000000000000000000000000000000000000073ffffffffffffffffffffffffffffffffffffffff163073ffffffffffffffffffffffffffffffffffffffff16148015610ae357507f000000000000000000000000000000000000000000000000000000000000000046145b15610b10577f00000000000000000000000000000000000000000000000000000000000000009050610b1b565b610b18611249565b90505b90565b610b266108c5565b73ffffffffffffffffffffffffffffffffffffffff16610b44610584565b73ffffffffffffffffffffffffffffffffffffffff1614610ba357610b676108c5565b6040517f118cdaa7000000000000000000000000000000000000000000000000000000008152600401610b9a9190611b4e565b60405180910390fd5b565b6000600560009054906101000a900473ffffffffffffffffffffffffffffffffffffffff16905081600560006101000a81548173ffffffffffffffffffffffffffffffffffffffff021916908373ffffffffffffffffffffffffffffffffffffffff1602179055508173ffffffffffffffffffffffffffffffffffffffff168173ffffffffffffffffffffffffffffffffffffffff167f8be0079c531659141344cd1fd0a4f28419497f9722a3daafe3b4186f6b6457e060405160405180910390a35050565b6000600860008373ffffffffffffffffffffffffffffffffffffffff1673ffffffffffffffffffffffffffffffffffffffff168152602001908152602001600020549050919050565b6060610cea60067f00000000000000000000000000000000000000000000000000000000000000006112df90919063ffffffff16565b905090565b6060610d2560077f00000000000000000000000000000000000000000000000000000000000000006112df90919063ffffffff16565b905090565b600073ffffffffffffffffffffffffffffffffffffffff168273ffffffffffffffffffffffffffffffffffffffff1603610d9c5760006040517fec442f05000000000000000000000000000000000000000000000000000000008152600401610d939190611b4e565b60405180910390fd5b610da860008383611024565b5050565b6000600860008373ffffffffffffffffffffffffffffffffffffffff1673ffffffffffffffffffffffffffffffffffffffff1681526020019081526020016000206000815480929190600101919050559050919050565b6000610e16610e10610a67565b8361138f565b9050919050565b600080600080610e2f888888886113d0565b925092509250610e3f82826114c4565b829350505050949350505050565b600073ffffffffffffffffffffffffffffffffffffffff168473ffffffffffffffffffffffffffffffffffffffff1603610ebf5760006040517fe602df05000000000000000000000000000000000000000000000000000000008152600401610eb69190611b4e565b60405180910390fd5b600073ffffffffffffffffffffffffffffffffffffffff168373ffffffffffffffffffffffffffffffffffffffff1603610f315760006040517f94280d62000000000000000000000000000000000000000000000000000000008152600401610f289190611b4e565b60405180910390fd5b81600160008673ffffffffffffffffffffffffffffffffffffffff1673ffffffffffffffffffffffffffffffffffffffff16815260200190815260200160002060008573ffffffffffffffffffffffffffffffffffffffff1673ffffffffffffffffffffffffffffffffffffffff16815260200190815260200160002081905550801561101e578273ffffffffffffffffffffffffffffffffffffffff168473ffffffffffffffffffffffffffffffffffffffff167f8c5be1e5ebec7d5bd14f71427d1e84f3dd0314c0f7b2291e5b200ac8c7c3b9258460405161101591906118bc565b60405180910390a35b50505050565b600073ffffffffffffffffffffffffffffffffffffffff168373ffffffffffffffffffffffffffffffffffffffff160361107657806002600082825461106a9190611e4f565b92505081905550611149565b60008060008573ffffffffffffffffffffffffffffffffffffffff1673ffffffffffffffffffffffffffffffffffffffff16815260200190815260200160002054905081811015611102578381836040517fe450d38c0000000000000000000000000000000000000000000000000000000081526004016110f993929190611de9565b60405180910390fd5b8181036000808673ffffffffffffffffffffffffffffffffffffffff1673ffffffffffffffffffffffffffffffffffffffff16815260200190815260200160002081905550505b600073ffffffffffffffffffffffffffffffffffffffff168273ffffffffffffffffffffffffffffffffffffffff160361119257806002600082825403925050819055506111df565b806000808473ffffffffffffffffffffffffffffffffffffffff1673ffffffffffffffffffffffffffffffffffffffff168152602001908152602001600020600082825401925050819055505b8173ffffffffffffffffffffffffffffffffffffffff168373ffffffffffffffffffffffffffffffffffffffff167fddf252ad1be2c89b69c2b068fc378daa952ba7f163c4a11628f55a4df523b3ef8360405161123c91906118bc565b60405180910390a3505050565b60007f8b73c3c69bb8fe3d512ecc4cf759cc79239f7b179b0ffacaa9a75d522b39400f7f00000000000000000000000000000000000000000000000000000000000000007f000000000000000000000000000000000000000000000000000000000000000046306040516020016112c4959493929190611e83565b60405160208183030381529060405280519060200120905090565b606060ff60001b83146112fc576112f583611628565b9050611389565b81805461130890611cff565b80601f016020809104026020016040519081016040528092919081815260200182805461133490611cff565b80156113815780601f1061135657610100808354040283529160200191611381565b820191906000526020600020905b81548152906001019060200180831161136457829003601f168201915b505050505090505b92915050565b60006040517f190100000000000000000000000000000000000000000000000000000000000081528360028201528260228201526042812091505092915050565b60008060007f7fffffffffffffffffffffffffffffff5d576e7357a4501ddfe92f46681b20a08460001c11156114105760006003859250925092506114ba565b6000600188888888604051600081526020016040526040516114359493929190611ed6565b6020604051602081039080840390855afa158015611457573d6000803e3d6000fd5b505050602060405103519050600073ffffffffffffffffffffffffffffffffffffffff168173ffffffffffffffffffffffffffffffffffffffff16036114ab57600060016000801b935093509350506114ba565b8060008060001b935093509350505b9450945094915050565b600060038111156114d8576114d7611f1b565b5b8260038111156114eb576114ea611f1b565b5b0315611624576001600381111561150557611504611f1b565b5b82600381111561151857611517611f1b565b5b0361154f576040517ff645eedf00000000000000000000000000000000000000000000000000000000815260040160405180910390fd5b6002600381111561156357611562611f1b565b5b82600381111561157657611575611f1b565b5b036115bb578060001c6040517ffce698f70000000000000000000000000000000000000000000000000000000081526004016115b291906118bc565b60405180910390fd5b6003808111156115ce576115cd611f1b565b5b8260038111156115e1576115e0611f1b565b5b0361162357806040517fd78bce0c00000000000000000000000000000000000000000000000000000000815260040161161a919061197a565b60405180910390fd5b5b5050565b606060006116358361169c565b90506000602067ffffffffffffffff81111561165457611653611d30565b5b6040519080825280601f01601f1916602001820160405280156116865781602001600182028036833780820191505090505b5090508181528360208201528092505050919050565b60008060ff8360001c169050601f8111156116e3576040517fb3512b0c00000000000000000000000000000000000000000000000000000000815260040160405180910390fd5b80915050919050565b600081519050919050565b600082825260208201905092915050565b60005b8381101561172657808201518184015260208101905061170b565b60008484015250505050565b6000601f19601f8301169050919050565b600061174e826116ec565b61175881856116f7565b9350611768818560208601611708565b61177181611732565b840191505092915050565b600060208201905081810360008301526117968184611743565b905092915050565b600080fd5b600073ffffffffffffffffffffffffffffffffffffffff82169050919050565b60006117ce826117a3565b9050919050565b6117de816117c3565b81146117e957600080fd5b50565b6000813590506117fb816117d5565b92915050565b6000819050919050565b61181481611801565b811461181f57600080fd5b50565b6000813590506118318161180b565b92915050565b6000806040838503121561184e5761184d61179e565b5b600061185c858286016117ec565b925050602061186d85828601611822565b9150509250929050565b60008115159050919050565b61188c81611877565b82525050565b60006020820190506118a76000830184611883565b92915050565b6118b681611801565b82525050565b60006020820190506118d160008301846118ad565b92915050565b6000806000606084860312156118f0576118ef61179e565b5b60006118fe868287016117ec565b935050602061190f868287016117ec565b925050604061192086828701611822565b9150509250925092565b600060ff82169050919050565b6119408161192a565b82525050565b600060208201905061195b6000830184611937565b92915050565b6000819050919050565b61197481611961565b82525050565b600060208201905061198f600083018461196b565b92915050565b6000602082840312156119ab576119aa61179e565b5b60006119b9848285016117ec565b91505092915050565b60007fff0000000000000000000000000000000000000000000000000000000000000082169050919050565b6119f7816119c2565b82525050565b611a06816117c3565b82525050565b600081519050919050565b600082825260208201905092915050565b6000819050602082019050919050565b611a4181611801565b82525050565b6000611a538383611a38565b60208301905092915050565b6000602082019050919050565b6000611a7782611a0c565b611a818185611a17565b9350611a8c83611a28565b8060005b83811015611abd578151611aa48882611a47565b9750611aaf83611a5f565b925050600181019050611a90565b5085935050505092915050565b600060e082019050611adf600083018a6119ee565b8181036020830152611af18189611743565b90508181036040830152611b058188611743565b9050611b1460608301876118ad565b611b2160808301866119fd565b611b2e60a083018561196b565b81810360c0830152611b408184611a6c565b905098975050505050505050565b6000602082019050611b6360008301846119fd565b92915050565b600060208284031215611b7f57611b7e61179e565b5b6000611b8d84828501611822565b91505092915050565b611b9f8161192a565b8114611baa57600080fd5b50565b600081359050611bbc81611b96565b92915050565b611bcb81611961565b8114611bd657600080fd5b50565b600081359050611be881611bc2565b92915050565b600080600080600080600060e0888a031215611c0d57611c0c61179e565b5b6000611c1b8a828b016117ec565b9750506020611c2c8a828b016117ec565b9650506040611c3d8a828b01611822565b9550506060611c4e8a828b01611822565b9450506080611c5f8a828b01611bad565b93505060a0611c708a828b01611bd9565b92505060c0611c818a828b01611bd9565b91505092959891949750929550565b60008060408385031215611ca757611ca661179e565b5b6000611cb5858286016117ec565b9250506020611cc6858286016117ec565b9150509250929050565b7f4e487b7100000000000000000000000000000000000000000000000000000000600052602260045260246000fd5b60006002820490506001821680611d1757607f821691505b602082108103611d2a57611d29611cd0565b5b50919050565b7f4e487b7100000000000000000000000000000000000000000000000000000000600052604160045260246000fd5b600060c082019050611d74600083018961196b565b611d8160208301886119fd565b611d8e60408301876119fd565b611d9b60608301866118ad565b611da860808301856118ad565b611db560a08301846118ad565b979650505050505050565b6000604082019050611dd560008301856119fd565b611de260208301846119fd565b9392505050565b6000606082019050611dfe60008301866119fd565b611e0b60208301856118ad565b611e1860408301846118ad565b949350505050565b7f4e487b7100000000000000000000000000000000000000000000000000000000600052601160045260246000fd5b6000611e5a82611801565b9150611e6583611801565b9250828201905080821115611e7d57611e7c611e20565b5b92915050565b600060a082019050611e98600083018861196b565b611ea5602083018761196b565b611eb2604083018661196b565b611ebf60608301856118ad565b611ecc60808301846119fd565b9695505050505050565b6000608082019050611eeb600083018761196b565b611ef86020830186611937565b611f05604083018561196b565b611f12606083018461196b565b95945050505050565b7f4e487b7100000000000000000000000000000000000000000000000000000000600052602160045260246000fdfea2646970667358221220e91e1360b3fba6dff0ca6caea1ae5e9b6bf08201505770950dc0212d1403e4e364736f6c63430008140033",
  "linkReferences": {},
  "deployedLinkReferences": {}
}